{
  "contractName": "MockMarginExchange",
  "abi": [
    {
      "constant": false,
      "inputs": [],
      "name": "renounceOwnership",
      "outputs": [],
      "payable": false,
      "stateMutability": "nonpayable",
      "type": "function"
    },
    {
      "constant": true,
      "inputs": [],
      "name": "owner",
      "outputs": [
        {
          "name": "",
          "type": "address"
        }
      ],
      "payable": false,
      "stateMutability": "view",
      "type": "function"
    },
    {
      "constant": true,
      "inputs": [],
      "name": "isOwner",
      "outputs": [
        {
          "name": "",
          "type": "bool"
        }
      ],
      "payable": false,
      "stateMutability": "view",
      "type": "function"
    },
    {
      "constant": false,
      "inputs": [
        {
          "name": "newOwner",
          "type": "address"
        }
      ],
      "name": "transferOwnership",
      "outputs": [],
      "payable": false,
      "stateMutability": "nonpayable",
      "type": "function"
    },
    {
      "inputs": [
        {
          "name": "_token1",
          "type": "address"
        },
        {
          "name": "_token2",
          "type": "address"
        }
      ],
      "payable": false,
      "stateMutability": "nonpayable",
      "type": "constructor"
    },
    {
      "anonymous": false,
      "inputs": [
        {
          "indexed": true,
          "name": "previousOwner",
          "type": "address"
        },
        {
          "indexed": true,
          "name": "newOwner",
          "type": "address"
        }
      ],
      "name": "OwnershipTransferred",
      "type": "event"
    },
    {
      "constant": true,
      "inputs": [
        {
          "name": "_fromToken",
          "type": "address"
        },
        {
          "name": "_toToken",
          "type": "address"
        },
        {
          "name": "amount",
          "type": "uint256"
        }
      ],
      "name": "getReturn",
      "outputs": [
        {
          "name": "",
          "type": "uint256"
        }
      ],
      "payable": false,
      "stateMutability": "view",
      "type": "function"
    },
    {
      "constant": false,
      "inputs": [
        {
          "name": "src",
          "type": "address"
        },
        {
          "name": "srcAmount",
          "type": "uint256"
        },
        {
          "name": "dest",
          "type": "address"
        },
        {
          "name": "maxDestAmount",
          "type": "uint256"
        },
        {
          "name": "recepient",
          "type": "address"
        },
        {
          "name": "minRate",
          "type": "uint256"
        }
      ],
      "name": "tradeExactly",
      "outputs": [
        {
          "name": "convertedAmount",
          "type": "uint256"
        },
        {
          "name": "remainder",
          "type": "uint256"
        }
      ],
      "payable": false,
      "stateMutability": "nonpayable",
      "type": "function"
    }
  ],
  "bytecode": "0x608060405234801561001057600080fd5b50604051604080610c8e833981016040819052815160209092015160008054600160a060020a03191633178082559192600160a060020a0392909216917f8be0079c531659141344cd1fd0a4f28419497f9722a3daafe3b4186f6b6457e0908290a360018054600160a060020a0319908116600160a060020a039485161790915560028054909116919092161760a060020a63ffffffff02191674640000000000000000000000000000000000000000179055610bbc806100d26000396000f3006080604052600436106100775763ffffffff7c01000000000000000000000000000000000000000000000000000000006000350416631e1401f8811461007c578063715018a6146100c55780638da5cb5b146100dc5780638f32d59b1461011a578063f2fde38b14610143578063f586d98414610171575b600080fd5b34801561008857600080fd5b506100b373ffffffffffffffffffffffffffffffffffffffff600435811690602435166044356101cf565b60408051918252519081900360200190f35b3480156100d157600080fd5b506100da61059a565b005b3480156100e857600080fd5b506100f1610611565b6040805173ffffffffffffffffffffffffffffffffffffffff9092168252519081900360200190f35b34801561012657600080fd5b5061012f61062d565b604080519115158252519081900360200190f35b34801561014f57600080fd5b506100da73ffffffffffffffffffffffffffffffffffffffff6004351661064b565b34801561017d57600080fd5b506101b673ffffffffffffffffffffffffffffffffffffffff60043581169060243590604435811690606435906084351660a43561066a565b6040805192835260208301919091528051918290030190f35b60015460009073ffffffffffffffffffffffffffffffffffffffff8581169116148015610216575060025473ffffffffffffffffffffffffffffffffffffffff8481169116145b156103ae57600254600154604080517f313ce56700000000000000000000000000000000000000000000000000000000815290516103a79374010000000000000000000000000000000000000000900463ffffffff169261039b9273ffffffffffffffffffffffffffffffffffffffff9091169163313ce567916004808201926020929091908290030181600087803b1580156102b257600080fd5b505af11580156102c6573d6000803e3d6000fd5b505050506040513d60208110156102dc57600080fd5b5051600254604080517f313ce5670000000000000000000000000000000000000000000000000000000081529051600a9390930a9261038f9273ffffffffffffffffffffffffffffffffffffffff169163313ce5679160048083019260209291908290030181600087803b15801561035357600080fd5b505af1158015610367573d6000803e3d6000fd5b505050506040513d602081101561037d57600080fd5b50518790600a0a63ffffffff610a9016565b9063ffffffff610ac916565b9063ffffffff610a9016565b9050610593565b60025473ffffffffffffffffffffffffffffffffffffffff85811691161480156103f2575060015473ffffffffffffffffffffffffffffffffffffffff8481169116145b1561052c57600254604080517f313ce56700000000000000000000000000000000000000000000000000000000815290516103a79263ffffffff740100000000000000000000000000000000000000008204169261038f9273ffffffffffffffffffffffffffffffffffffffff9092169163313ce567916004808201926020929091908290030181600087803b15801561048b57600080fd5b505af115801561049f573d6000803e3d6000fd5b505050506040513d60208110156104b557600080fd5b5051600154604080517f313ce5670000000000000000000000000000000000000000000000000000000081529051600a9390930a9261038f9273ffffffffffffffffffffffffffffffffffffffff169163313ce5679160048083019260209291908290030181600087803b15801561035357600080fd5b604080517f08c379a000000000000000000000000000000000000000000000000000000000815260206004820152601560248201527f636f6e76657273696f6e20696d706f737369626c650000000000000000000000604482015290519081900360640190fd5b9392505050565b6105a261062d565b15156105ad57600080fd5b6000805460405173ffffffffffffffffffffffffffffffffffffffff909116907f8be0079c531659141344cd1fd0a4f28419497f9722a3daafe3b4186f6b6457e0908390a36000805473ffffffffffffffffffffffffffffffffffffffff19169055565b60005473ffffffffffffffffffffffffffffffffffffffff1690565b60005473ffffffffffffffffffffffffffffffffffffffff16331490565b61065361062d565b151561065e57600080fd5b61066781610aec565b50565b6001546000908190819073ffffffffffffffffffffffffffffffffffffffff8a811691161480156106b5575060025473ffffffffffffffffffffffffffffffffffffffff8881169116145b806106ff575060025473ffffffffffffffffffffffffffffffffffffffff8a811691161480156106ff575060015473ffffffffffffffffffffffffffffffffffffffff8881169116145b151561076c57604080517f08c379a000000000000000000000000000000000000000000000000000000000815260206004820152601660248201527f546f6b656e73206e6f7420747261646564206865726500000000000000000000604482015290519081900360640190fd5b604080517f23b872dd000000000000000000000000000000000000000000000000000000008152336004820152306024820152604481018a9052905173ffffffffffffffffffffffffffffffffffffffff8b16916323b872dd9160648083019260209291908290030181600087803b1580156107e757600080fd5b505af11580156107fb573d6000803e3d6000fd5b505050506040513d602081101561081157600080fd5b5061081f9050878a886101cf565b905087811115610908578673ffffffffffffffffffffffffffffffffffffffff1663a9059cbb866108518c8b8d6101cf565b6040518363ffffffff167c0100000000000000000000000000000000000000000000000000000000028152600401808373ffffffffffffffffffffffffffffffffffffffff1673ffffffffffffffffffffffffffffffffffffffff16815260200182815260200192505050602060405180830381600087803b1580156108d657600080fd5b505af11580156108ea573d6000803e3d6000fd5b505050506040513d602081101561090057600080fd5b50610a849050565b8673ffffffffffffffffffffffffffffffffffffffff1663a9059cbb866109308c8b866101cf565b6040518363ffffffff167c0100000000000000000000000000000000000000000000000000000000028152600401808373ffffffffffffffffffffffffffffffffffffffff1673ffffffffffffffffffffffffffffffffffffffff16815260200182815260200192505050602060405180830381600087803b1580156109b557600080fd5b505af11580156109c9573d6000803e3d6000fd5b505050506040513d60208110156109df57600080fd5b5050604080517fa9059cbb000000000000000000000000000000000000000000000000000000008152336004820152828a036024820152905173ffffffffffffffffffffffffffffffffffffffff8b169163a9059cbb9160448083019260209291908290030181600087803b158015610a5757600080fd5b505af1158015610a6b573d6000803e3d6000fd5b505050506040513d6020811015610a8157600080fd5b50505b50965096945050505050565b600080831515610aa35760009150610ac2565b50828202828482811515610ab357fe5b0414610abe57600080fd5b8091505b5092915050565b600080808311610ad857600080fd5b8284811515610ae357fe5b04949350505050565b73ffffffffffffffffffffffffffffffffffffffff81161515610b0e57600080fd5b6000805460405173ffffffffffffffffffffffffffffffffffffffff808516939216917f8be0079c531659141344cd1fd0a4f28419497f9722a3daafe3b4186f6b6457e091a36000805473ffffffffffffffffffffffffffffffffffffffff191673ffffffffffffffffffffffffffffffffffffffff929092169190911790555600a165627a7a72305820105542ad72b1f3bd8ac029cd260ad3805f4ebebbe37bc12d07fe84e6f6f5a2640029",
  "source": "pragma solidity ^0.4.24;\n\nimport \"openzeppelin-solidity/contracts/ownership/Ownable.sol\";\nimport \"openzeppelin-solidity/contracts/math/SafeMath.sol\";\nimport \"../Token/ERC20.sol\";\n\n/**\n@title A mock margin exchange for local testing purposes \n@author Yoni Svechinsky\n*/\ncontract MockMarginExchange is Ownable{\n    using SafeMath for uint;\n\n    ERC20 token1;\n    ERC20 token2;\n    uint32 rate; // 1 * token1 = rate * token2;\n\n    constructor(address _token1, address _token2) public{\n        token1 = ERC20(_token1);\n        token2 = ERC20(_token2);\n        rate = 100;\n    }\n\n    /// @dev Returns the min return on conversion of token\n\tfunction getReturn(ERC20 _fromToken, ERC20 _toToken, uint amount) public view returns(uint){\n\t\tif (_fromToken == token1 && _toToken == token2){\n            return amount.mul(10**token2.decimals()).div(10**token1.decimals()).mul(rate);\n        }\n\n        if (_fromToken == token2 && _toToken == token1){\n            return amount.mul(10**token1.decimals()).div(10**token2.decimals()).div(rate);\n        }\n\n        revert(\"conversion impossible\");\n\t}\n\n    \n     /**\n    @dev Trades from src to dest returning sending at most maxDestAmount to recepient and returnin the rest to the sender\n    @param src Address of source erc20 token\n    @param srcAmount Amount of src tokens\n    @param dest Destination token address\n    @param maxDestAmount Maximum amount of dest tokens to convert to\n    @param recepient Address to send dest tokens to\n    @param minRate Min rate for exchange\n    @return A tuple of the converted amount and remainder;\n    @return Worst rate converted amount \n     */\n    function tradeExactly(ERC20 src, uint srcAmount, ERC20 dest, uint maxDestAmount, address recepient, uint minRate) external returns(uint convertedAmount, uint remainder){\n        require((src == token1 && dest == token2) || (src == token2 && dest == token1), \"Tokens not traded here\");\n        src.transferFrom(msg.sender, this, srcAmount);\n        uint tokenAmountNedded = getReturn(dest, src, maxDestAmount);\n        if (tokenAmountNedded > srcAmount){\n            dest.transfer(recepient, getReturn(src, dest, srcAmount));\n        }\n        else{\n            dest.transfer(recepient, getReturn(src, dest, tokenAmountNedded));\n            src.transfer(msg.sender, srcAmount - tokenAmountNedded);\n        }\n\n    }\n\n}",
  "sourcePath": "/home/yoni/Devel/opzia/contracts/Exchange/MockExchage.sol",
  "compiler": {
    "name": "solc",
    "version": "0.4.24+commit.e67f0147.Emscripten.clang"
  },
  "schemaVersion": "3.0.0-beta.2",
  "updatedAt": "2018-12-02T20:41:59.575Z",
  "devdoc": {
    "author": "Yoni Svechinsky",
    "methods": {
      "getReturn(address,address,uint256)": {
        "details": "Returns the min return on conversion of token"
      },
      "isOwner()": {
        "return": "true if `msg.sender` is the owner of the contract."
      },
      "owner()": {
        "return": "the address of the owner."
      },
      "renounceOwnership()": {
        "details": "Allows the current owner to relinquish control of the contract."
      },
      "tradeExactly(address,uint256,address,uint256,address,uint256)": {
        "details": "Trades from src to dest returning sending at most maxDestAmount to recepient and returnin the rest to the sender",
        "params": {
          "dest": "Destination token address",
          "maxDestAmount": "Maximum amount of dest tokens to convert to",
          "minRate": "Min rate for exchange",
          "recepient": "Address to send dest tokens to",
          "src": "Address of source erc20 token",
          "srcAmount": "Amount of src tokens"
        },
        "return": "A tuple of the converted amount and remainder;Worst rate converted amount "
      },
      "transferOwnership(address)": {
        "details": "Allows the current owner to transfer control of the contract to a newOwner.",
        "params": {
          "newOwner": "The address to transfer ownership to."
        }
      }
    },
    "title": "A mock margin exchange for local testing purposes "
  },
  "userdoc": {
    "methods": {
      "renounceOwnership()": {
        "notice": "Renouncing to ownership will leave the contract without an owner. It will not be possible to call the functions with the `onlyOwner` modifier anymore."
      }
    }
  }
}