{
  "contractName": "MockMarginExchange",
  "abi": [
    {
      "constant": false,
      "inputs": [],
      "name": "renounceOwnership",
      "outputs": [],
      "payable": false,
      "stateMutability": "nonpayable",
      "type": "function"
    },
    {
      "constant": true,
      "inputs": [],
      "name": "owner",
      "outputs": [
        {
          "name": "",
          "type": "address"
        }
      ],
      "payable": false,
      "stateMutability": "view",
      "type": "function"
    },
    {
      "constant": true,
      "inputs": [],
      "name": "isOwner",
      "outputs": [
        {
          "name": "",
          "type": "bool"
        }
      ],
      "payable": false,
      "stateMutability": "view",
      "type": "function"
    },
    {
      "constant": false,
      "inputs": [
        {
          "name": "newOwner",
          "type": "address"
        }
      ],
      "name": "transferOwnership",
      "outputs": [],
      "payable": false,
      "stateMutability": "nonpayable",
      "type": "function"
    },
    {
      "inputs": [
        {
          "name": "_token1",
          "type": "address"
        },
        {
          "name": "_token2",
          "type": "address"
        }
      ],
      "payable": false,
      "stateMutability": "nonpayable",
      "type": "constructor"
    },
    {
      "anonymous": false,
      "inputs": [
        {
          "indexed": true,
          "name": "previousOwner",
          "type": "address"
        },
        {
          "indexed": true,
          "name": "newOwner",
          "type": "address"
        }
      ],
      "name": "OwnershipTransferred",
      "type": "event"
    },
    {
      "constant": true,
      "inputs": [
        {
          "name": "_fromToken",
          "type": "address"
        },
        {
          "name": "_toToken",
          "type": "address"
        },
        {
          "name": "amount",
          "type": "uint256"
        }
      ],
      "name": "getReturn",
      "outputs": [
        {
          "name": "",
          "type": "uint256"
        }
      ],
      "payable": false,
      "stateMutability": "view",
      "type": "function"
    },
    {
      "constant": false,
      "inputs": [
        {
          "name": "src",
          "type": "address"
        },
        {
          "name": "srcAmount",
          "type": "uint256"
        },
        {
          "name": "dest",
          "type": "address"
        },
        {
          "name": "maxDestAmount",
          "type": "uint256"
        },
        {
          "name": "recepient",
          "type": "address"
        },
        {
          "name": "minRate",
          "type": "uint256"
        }
      ],
      "name": "tradeExactly",
      "outputs": [
        {
          "name": "convertedAmount",
          "type": "uint256"
        },
        {
          "name": "remainder",
          "type": "uint256"
        }
      ],
      "payable": false,
      "stateMutability": "nonpayable",
      "type": "function"
    }
  ],
  "bytecode": "0x608060405234801561001057600080fd5b506040516040806112958339810180604052810190808051906020019092919080519060200190929190505050336000806101000a81548173ffffffffffffffffffffffffffffffffffffffff021916908373ffffffffffffffffffffffffffffffffffffffff1602179055506000809054906101000a900473ffffffffffffffffffffffffffffffffffffffff1673ffffffffffffffffffffffffffffffffffffffff16600073ffffffffffffffffffffffffffffffffffffffff167f8be0079c531659141344cd1fd0a4f28419497f9722a3daafe3b4186f6b6457e060405160405180910390a381600160006101000a81548173ffffffffffffffffffffffffffffffffffffffff021916908373ffffffffffffffffffffffffffffffffffffffff16021790555080600260006101000a81548173ffffffffffffffffffffffffffffffffffffffff021916908373ffffffffffffffffffffffffffffffffffffffff1602179055506064600260146101000a81548163ffffffff021916908363ffffffff16021790555050506110e7806101ae6000396000f300608060405260043610610078576000357c0100000000000000000000000000000000000000000000000000000000900463ffffffff1680631e1401f81461007d578063715018a6146100fe5780638da5cb5b146101155780638f32d59b1461016c578063f2fde38b1461019b578063f586d984146101de575b600080fd5b34801561008957600080fd5b506100e8600480360381019080803573ffffffffffffffffffffffffffffffffffffffff169060200190929190803573ffffffffffffffffffffffffffffffffffffffff1690602001909291908035906020019092919050505061029a565b6040518082815260200191505060405180910390f35b34801561010a57600080fd5b50610113610827565b005b34801561012157600080fd5b5061012a6108f9565b604051808273ffffffffffffffffffffffffffffffffffffffff1673ffffffffffffffffffffffffffffffffffffffff16815260200191505060405180910390f35b34801561017857600080fd5b50610181610922565b604051808215151515815260200191505060405180910390f35b3480156101a757600080fd5b506101dc600480360381019080803573ffffffffffffffffffffffffffffffffffffffff169060200190929190505050610979565b005b3480156101ea57600080fd5b5061027d600480360381019080803573ffffffffffffffffffffffffffffffffffffffff16906020019092919080359060200190929190803573ffffffffffffffffffffffffffffffffffffffff16906020019092919080359060200190929190803573ffffffffffffffffffffffffffffffffffffffff16906020019092919080359060200190929190505050610998565b604051808381526020018281526020019250505060405180910390f35b6000600160009054906101000a900473ffffffffffffffffffffffffffffffffffffffff1673ffffffffffffffffffffffffffffffffffffffff168473ffffffffffffffffffffffffffffffffffffffff161480156103465750600260009054906101000a900473ffffffffffffffffffffffffffffffffffffffff1673ffffffffffffffffffffffffffffffffffffffff168373ffffffffffffffffffffffffffffffffffffffff16145b1561052757610520600260149054906101000a900463ffffffff1663ffffffff16610512600160009054906101000a900473ffffffffffffffffffffffffffffffffffffffff1673ffffffffffffffffffffffffffffffffffffffff1663313ce5676040518163ffffffff167c0100000000000000000000000000000000000000000000000000000000028152600401602060405180830381600087803b1580156103f057600080fd5b505af1158015610404573d6000803e3d6000fd5b505050506040513d602081101561041a57600080fd5b8101908080519060200190929190505050600a0a610504600260009054906101000a900473ffffffffffffffffffffffffffffffffffffffff1673ffffffffffffffffffffffffffffffffffffffff1663313ce5676040518163ffffffff167c0100000000000000000000000000000000000000000000000000000000028152600401602060405180830381600087803b1580156104b757600080fd5b505af11580156104cb573d6000803e3d6000fd5b505050506040513d60208110156104e157600080fd5b8101908080519060200190929190505050600a0a87610f5990919063ffffffff16565b610f9790919063ffffffff16565b610f5990919063ffffffff16565b9050610820565b600260009054906101000a900473ffffffffffffffffffffffffffffffffffffffff1673ffffffffffffffffffffffffffffffffffffffff168473ffffffffffffffffffffffffffffffffffffffff161480156105d15750600160009054906101000a900473ffffffffffffffffffffffffffffffffffffffff1673ffffffffffffffffffffffffffffffffffffffff168373ffffffffffffffffffffffffffffffffffffffff16145b156107b2576107ab600260149054906101000a900463ffffffff1663ffffffff1661079d600260009054906101000a900473ffffffffffffffffffffffffffffffffffffffff1673ffffffffffffffffffffffffffffffffffffffff1663313ce5676040518163ffffffff167c0100000000000000000000000000000000000000000000000000000000028152600401602060405180830381600087803b15801561067b57600080fd5b505af115801561068f573d6000803e3d6000fd5b505050506040513d60208110156106a557600080fd5b8101908080519060200190929190505050600a0a61078f600160009054906101000a900473ffffffffffffffffffffffffffffffffffffffff1673ffffffffffffffffffffffffffffffffffffffff1663313ce5676040518163ffffffff167c0100000000000000000000000000000000000000000000000000000000028152600401602060405180830381600087803b15801561074257600080fd5b505af1158015610756573d6000803e3d6000fd5b505050506040513d602081101561076c57600080fd5b8101908080519060200190929190505050600a0a87610f5990919063ffffffff16565b610f9790919063ffffffff16565b610f9790919063ffffffff16565b9050610820565b6040517f08c379a00000000000000000000000000000000000000000000000000000000081526004018080602001828103825260158152602001807f636f6e76657273696f6e20696d706f737369626c65000000000000000000000081525060200191505060405180910390fd5b9392505050565b61082f610922565b151561083a57600080fd5b600073ffffffffffffffffffffffffffffffffffffffff166000809054906101000a900473ffffffffffffffffffffffffffffffffffffffff1673ffffffffffffffffffffffffffffffffffffffff167f8be0079c531659141344cd1fd0a4f28419497f9722a3daafe3b4186f6b6457e060405160405180910390a360008060006101000a81548173ffffffffffffffffffffffffffffffffffffffff021916908373ffffffffffffffffffffffffffffffffffffffff160217905550565b60008060009054906101000a900473ffffffffffffffffffffffffffffffffffffffff16905090565b60008060009054906101000a900473ffffffffffffffffffffffffffffffffffffffff1673ffffffffffffffffffffffffffffffffffffffff163373ffffffffffffffffffffffffffffffffffffffff1614905090565b610981610922565b151561098c57600080fd5b61099581610fc1565b50565b6000806000600160009054906101000a900473ffffffffffffffffffffffffffffffffffffffff1673ffffffffffffffffffffffffffffffffffffffff168973ffffffffffffffffffffffffffffffffffffffff16148015610a475750600260009054906101000a900473ffffffffffffffffffffffffffffffffffffffff1673ffffffffffffffffffffffffffffffffffffffff168773ffffffffffffffffffffffffffffffffffffffff16145b80610af85750600260009054906101000a900473ffffffffffffffffffffffffffffffffffffffff1673ffffffffffffffffffffffffffffffffffffffff168973ffffffffffffffffffffffffffffffffffffffff16148015610af75750600160009054906101000a900473ffffffffffffffffffffffffffffffffffffffff1673ffffffffffffffffffffffffffffffffffffffff168773ffffffffffffffffffffffffffffffffffffffff16145b5b1515610b6c576040517f08c379a00000000000000000000000000000000000000000000000000000000081526004018080602001828103825260168152602001807f546f6b656e73206e6f742074726164656420686572650000000000000000000081525060200191505060405180910390fd5b8873ffffffffffffffffffffffffffffffffffffffff166323b872dd33308b6040518463ffffffff167c0100000000000000000000000000000000000000000000000000000000028152600401808473ffffffffffffffffffffffffffffffffffffffff1673ffffffffffffffffffffffffffffffffffffffff1681526020018373ffffffffffffffffffffffffffffffffffffffff1673ffffffffffffffffffffffffffffffffffffffff1681526020018281526020019350505050602060405180830381600087803b158015610c4357600080fd5b505af1158015610c57573d6000803e3d6000fd5b505050506040513d6020811015610c6d57600080fd5b810190808051906020019092919050505050610c8a878a8861029a565b905087811115610d82578673ffffffffffffffffffffffffffffffffffffffff1663a9059cbb86610cbc8c8b8d61029a565b6040518363ffffffff167c0100000000000000000000000000000000000000000000000000000000028152600401808373ffffffffffffffffffffffffffffffffffffffff1673ffffffffffffffffffffffffffffffffffffffff16815260200182815260200192505050602060405180830381600087803b158015610d4157600080fd5b505af1158015610d55573d6000803e3d6000fd5b505050506040513d6020811015610d6b57600080fd5b810190808051906020019092919050505050610f4d565b8673ffffffffffffffffffffffffffffffffffffffff1663a9059cbb86610daa8c8b8661029a565b6040518363ffffffff167c0100000000000000000000000000000000000000000000000000000000028152600401808373ffffffffffffffffffffffffffffffffffffffff1673ffffffffffffffffffffffffffffffffffffffff16815260200182815260200192505050602060405180830381600087803b158015610e2f57600080fd5b505af1158015610e43573d6000803e3d6000fd5b505050506040513d6020811015610e5957600080fd5b8101908080519060200190929190505050508873ffffffffffffffffffffffffffffffffffffffff1663a9059cbb33838b036040518363ffffffff167c0100000000000000000000000000000000000000000000000000000000028152600401808373ffffffffffffffffffffffffffffffffffffffff1673ffffffffffffffffffffffffffffffffffffffff16815260200182815260200192505050602060405180830381600087803b158015610f1057600080fd5b505af1158015610f24573d6000803e3d6000fd5b505050506040513d6020811015610f3a57600080fd5b8101908080519060200190929190505050505b50965096945050505050565b6000806000841415610f6e5760009150610f90565b8284029050828482811515610f7f57fe5b04141515610f8c57600080fd5b8091505b5092915050565b600080600083111515610fa957600080fd5b8284811515610fb457fe5b0490508091505092915050565b600073ffffffffffffffffffffffffffffffffffffffff168173ffffffffffffffffffffffffffffffffffffffff1614151515610ffd57600080fd5b8073ffffffffffffffffffffffffffffffffffffffff166000809054906101000a900473ffffffffffffffffffffffffffffffffffffffff1673ffffffffffffffffffffffffffffffffffffffff167f8be0079c531659141344cd1fd0a4f28419497f9722a3daafe3b4186f6b6457e060405160405180910390a3806000806101000a81548173ffffffffffffffffffffffffffffffffffffffff021916908373ffffffffffffffffffffffffffffffffffffffff160217905550505600a165627a7a72305820f3322c1e74a4cf5fb48b4cf503752b2a0a7d9a31abaefba77ddf2ee1ef9d45cf0029",
  "source": "pragma solidity ^0.4.24;\n\nimport \"openzeppelin-solidity/contracts/ownership/Ownable.sol\";\nimport \"openzeppelin-solidity/contracts/math/SafeMath.sol\";\nimport \"../Token/ERC20.sol\";\n\n/**\n@title A mock margin exchange for local testing purposes \n@author Yoni Svechinsky\n*/\ncontract MockMarginExchange is Ownable{\n    using SafeMath for uint;\n\n    ERC20 token1;\n    ERC20 token2;\n    uint32 rate; // 1 * token1 = rate * token2;\n\n    constructor(address _token1, address _token2) public{\n        token1 = ERC20(_token1);\n        token2 = ERC20(_token2);\n        rate = 100;\n    }\n\n    /// @dev Returns the min return on conversion of token\n\tfunction getReturn(ERC20 _fromToken, ERC20 _toToken, uint amount) public view returns(uint){\n\t\tif (_fromToken == token1 && _toToken == token2){\n            return amount.mul(10**token2.decimals()).div(10**token1.decimals()).mul(rate);\n        }\n\n        if (_fromToken == token2 && _toToken == token1){\n            return amount.mul(10**token1.decimals()).div(10**token2.decimals()).div(rate);\n        }\n\n        revert(\"conversion impossible\");\n\t}\n\n    \n     /**\n    @dev Trades from src to dest returning sending at most maxDestAmount to recepient and returnin the rest to the sender\n    @param src Address of source erc20 token\n    @param srcAmount Amount of src tokens\n    @param dest Destination token address\n    @param maxDestAmount Maximum amount of dest tokens to convert to\n    @param recepient Address to send dest tokens to\n    @param minRate Min rate for exchange\n    @return A tuple of the converted amount and remainder;\n    @return Worst rate converted amount \n     */\n    function tradeExactly(ERC20 src, uint srcAmount, ERC20 dest, uint maxDestAmount, address recepient, uint minRate) external returns(uint convertedAmount, uint remainder){\n        require((src == token1 && dest == token2) || (src == token2 && dest == token1), \"Tokens not traded here\");\n        src.transferFrom(msg.sender, this, srcAmount);\n        uint tokenAmountNedded = getReturn(dest, src, maxDestAmount);\n        if (tokenAmountNedded > srcAmount){\n            dest.transfer(recepient, getReturn(src, dest, srcAmount));\n        }\n        else{\n            dest.transfer(recepient, getReturn(src, dest, tokenAmountNedded));\n            src.transfer(msg.sender, srcAmount - tokenAmountNedded);\n        }\n\n    }\n\n}",
  "sourcePath": "/Users/kenneth/Projects/monti/contracts/Exchange/MockExchage.sol",
  "compiler": {
    "name": "solc",
    "version": "0.4.24+commit.e67f0147.Emscripten.clang"
  },
  "schemaVersion": "2.0.1",
  "updatedAt": "2018-12-03T18:51:59.233Z"
}