{
  "contractName": "OptionRegistry",
  "abi": [
    {
      "constant": true,
      "inputs": [
        {
          "name": "",
          "type": "address"
        },
        {
          "name": "",
          "type": "uint256"
        }
      ],
      "name": "userToOffers",
      "outputs": [
        {
          "name": "",
          "type": "uint256"
        }
      ],
      "payable": false,
      "stateMutability": "view",
      "type": "function"
    },
    {
      "constant": true,
      "inputs": [
        {
          "name": "",
          "type": "uint256"
        }
      ],
      "name": "offers",
      "outputs": [
        {
          "name": "volatility",
          "type": "uint32"
        },
        {
          "name": "fee",
          "type": "uint32"
        },
        {
          "name": "maxAssetsLocked",
          "type": "uint256"
        },
        {
          "name": "assetsLocked",
          "type": "uint256"
        },
        {
          "name": "ethOrToken",
          "type": "bool"
        },
        {
          "name": "duration",
          "type": "uint256"
        },
        {
          "name": "minDuration",
          "type": "uint256"
        },
        {
          "name": "exchange",
          "type": "address"
        },
        {
          "name": "owner",
          "type": "address"
        }
      ],
      "payable": false,
      "stateMutability": "view",
      "type": "function"
    },
    {
      "constant": true,
      "inputs": [
        {
          "name": "",
          "type": "address"
        }
      ],
      "name": "userEthBalances",
      "outputs": [
        {
          "name": "",
          "type": "uint256"
        }
      ],
      "payable": false,
      "stateMutability": "view",
      "type": "function"
    },
    {
      "constant": true,
      "inputs": [
        {
          "name": "",
          "type": "uint256"
        }
      ],
      "name": "priceLocks",
      "outputs": [
        {
          "name": "offerIndex",
          "type": "uint256"
        },
        {
          "name": "creation",
          "type": "uint256"
        },
        {
          "name": "tokenAmount",
          "type": "uint256"
        },
        {
          "name": "ethAmount",
          "type": "uint256"
        },
        {
          "name": "taker",
          "type": "address"
        },
        {
          "name": "ethOrToken",
          "type": "bool"
        }
      ],
      "payable": false,
      "stateMutability": "view",
      "type": "function"
    },
    {
      "constant": true,
      "inputs": [
        {
          "name": "",
          "type": "address"
        },
        {
          "name": "",
          "type": "uint256"
        }
      ],
      "name": "userToLocks",
      "outputs": [
        {
          "name": "",
          "type": "uint256"
        }
      ],
      "payable": false,
      "stateMutability": "view",
      "type": "function"
    },
    {
      "constant": true,
      "inputs": [
        {
          "name": "",
          "type": "address"
        }
      ],
      "name": "userTokenBalances",
      "outputs": [
        {
          "name": "",
          "type": "uint256"
        }
      ],
      "payable": false,
      "stateMutability": "view",
      "type": "function"
    },
    {
      "inputs": [
        {
          "name": "_token",
          "type": "address"
        }
      ],
      "payable": false,
      "stateMutability": "nonpayable",
      "type": "constructor"
    },
    {
      "constant": false,
      "inputs": [
        {
          "name": "uint32Params",
          "type": "uint32[2]"
        },
        {
          "name": "uintParams",
          "type": "uint256[4]"
        },
        {
          "name": "eth",
          "type": "bool"
        },
        {
          "name": "exchange",
          "type": "address"
        }
      ],
      "name": "addOffer",
      "outputs": [],
      "payable": true,
      "stateMutability": "payable",
      "type": "function"
    },
    {
      "constant": false,
      "inputs": [
        {
          "name": "amountToLock",
          "type": "uint256"
        },
        {
          "name": "offerIndex",
          "type": "uint256"
        }
      ],
      "name": "lockEthAtPrice",
      "outputs": [],
      "payable": false,
      "stateMutability": "nonpayable",
      "type": "function"
    },
    {
      "constant": false,
      "inputs": [
        {
          "name": "amountToLock",
          "type": "uint256"
        },
        {
          "name": "offerIndex",
          "type": "uint256"
        }
      ],
      "name": "lockTokenAtPrice",
      "outputs": [],
      "payable": true,
      "stateMutability": "payable",
      "type": "function"
    },
    {
      "constant": false,
      "inputs": [
        {
          "name": "lockIndex",
          "type": "uint256"
        },
        {
          "name": "givenTokens",
          "type": "uint256"
        }
      ],
      "name": "takeLock",
      "outputs": [],
      "payable": true,
      "stateMutability": "payable",
      "type": "function"
    },
    {
      "constant": false,
      "inputs": [
        {
          "name": "lockIndex",
          "type": "uint256"
        }
      ],
      "name": "cancelLock",
      "outputs": [],
      "payable": false,
      "stateMutability": "nonpayable",
      "type": "function"
    },
    {
      "constant": false,
      "inputs": [
        {
          "name": "amount",
          "type": "uint256"
        }
      ],
      "name": "addToken",
      "outputs": [],
      "payable": false,
      "stateMutability": "nonpayable",
      "type": "function"
    },
    {
      "constant": false,
      "inputs": [],
      "name": "addEther",
      "outputs": [],
      "payable": true,
      "stateMutability": "payable",
      "type": "function"
    },
    {
      "constant": false,
      "inputs": [
        {
          "name": "offerIndex",
          "type": "uint256"
        },
        {
          "name": "newMaxAsset",
          "type": "uint32"
        }
      ],
      "name": "changeOfferMaxAsset",
      "outputs": [],
      "payable": false,
      "stateMutability": "nonpayable",
      "type": "function"
    },
    {
      "constant": false,
      "inputs": [
        {
          "name": "lockIndex",
          "type": "uint256"
        },
        {
          "name": "recipient",
          "type": "address"
        }
      ],
      "name": "transfer",
      "outputs": [],
      "payable": false,
      "stateMutability": "nonpayable",
      "type": "function"
    },
    {
      "constant": false,
      "inputs": [
        {
          "name": "amount",
          "type": "uint256"
        }
      ],
      "name": "withdrawToken",
      "outputs": [],
      "payable": false,
      "stateMutability": "nonpayable",
      "type": "function"
    },
    {
      "constant": false,
      "inputs": [
        {
          "name": "amount",
          "type": "uint256"
        }
      ],
      "name": "withdrawEth",
      "outputs": [],
      "payable": true,
      "stateMutability": "payable",
      "type": "function"
    },
    {
      "constant": true,
      "inputs": [],
      "name": "getOffersLength",
      "outputs": [
        {
          "name": "",
          "type": "uint256"
        }
      ],
      "payable": false,
      "stateMutability": "view",
      "type": "function"
    },
    {
      "constant": true,
      "inputs": [],
      "name": "getLocksLength",
      "outputs": [
        {
          "name": "",
          "type": "uint256"
        }
      ],
      "payable": false,
      "stateMutability": "view",
      "type": "function"
    },
    {
      "constant": true,
      "inputs": [
        {
          "name": "user",
          "type": "address"
        }
      ],
      "name": "getUserOffersLength",
      "outputs": [
        {
          "name": "",
          "type": "uint256"
        }
      ],
      "payable": false,
      "stateMutability": "view",
      "type": "function"
    },
    {
      "constant": true,
      "inputs": [
        {
          "name": "user",
          "type": "address"
        }
      ],
      "name": "getUserLocksLength",
      "outputs": [
        {
          "name": "",
          "type": "uint256"
        }
      ],
      "payable": false,
      "stateMutability": "view",
      "type": "function"
    }
  ],
  "bytecode": "0x608060405234801561001057600080fd5b50604051602080611e1f833981016040525160008054600160a060020a03909216600160a060020a0319909216919091179055611dcd806100526000396000f30060806040526004361061011c5763ffffffff7c01000000000000000000000000000000000000000000000000000000006000350416630d31d6918114610121578063179d375c146101315780632b78c6bd14610149578063489c18b0146101645780634b8dc1891461018b57806350baa622146101ac57806356799e3c146101c457806373c2dc12146101e85780638894dd2b146101fd5780638a72ea6a146102055780638d85bb50146102795780638f7683cd1461029a5780639bda6097146102a8578063a11c9a91146102c9578063a57b52d2146102ea578063b7760c8f14610340578063c311d04914610364578063dfb50b5d1461036f578063e6088b28146103d8578063e7328000146103fc578063f3c73bd11461041d575b600080fd5b61012f600435602435610435565b005b34801561013d57600080fd5b5061012f6004356108af565b34801561015557600080fd5b5061012f600435602435610964565b34801561017057600080fd5b50610179610dce565b60408051918252519081900360200190f35b34801561019757600080fd5b50610179600160a060020a0360043516610dd4565b3480156101b857600080fd5b5061012f600435610def565b3480156101d057600080fd5b50610179600160a060020a0360043516602435610edc565b3480156101f457600080fd5b50610179610f0c565b61012f610f12565b34801561021157600080fd5b5061021d600435610f29565b6040805163ffffffff9a8b168152989099166020890152878901969096526060870194909452911515608086015260a085015260c0840152600160a060020a0390811660e0840152166101008201529051908190036101200190f35b34801561028557600080fd5b50610179600160a060020a0360043516610fa2565b61012f600435602435610fbd565b3480156102b457600080fd5b5061012f60043563ffffffff60243516611459565b3480156102d557600080fd5b50610179600160a060020a03600435166114f7565b3480156102f657600080fd5b50610302600435611509565b604080519687526020870195909552858501939093526060850191909152600160a060020a03166080840152151560a0830152519081900360c00190f35b34801561034c57600080fd5b5061012f600435600160a060020a036024351661156e565b61012f60043561162d565b60408051808201825261012f91369160049160449190839060029083908390808284375050604080516080818101909252949796958181019594509250600491508390839080828437509396505050508135151592505060200135600160a060020a03166116dc565b3480156103e457600080fd5b50610179600160a060020a0360043516602435611a02565b34801561040857600080fd5b50610179600160a060020a0360043516611a1d565b34801561042957600080fd5b5061012f600435611a2f565b60008060008060038681548110151561044a57fe5b906000526020600020906005020193506004846000015481548110151561046d57fe5b6000918252602090912060048601546008909202019350600160a060020a031633146104e85760408051600080516020611d82833981519152815260206004820152601160248201527f5065726d697373696f6e2064656e696564000000000000000000000000000000604482015290519081900360640190fd5b600583015460018501544291011061054f5760408051600080516020611d82833981519152815260206004820152601160248201527f746f6f206561726c7920746f2074616b65000000000000000000000000000000604482015290519081900360640190fd5b60048301546001850154429101116105b65760408051600080516020611d82833981519152815260206004820152601060248201527f746f6f206c61746520746f2074616b6500000000000000000000000000000000604482015290519081900360640190fd5b600383015460ff161561075a5760028401548511156106245760408051600080516020611d82833981519152815260206004820152601160248201527f4e6f7420656e6f756768206c6f636b6564000000000000000000000000000000604482015290519081900360640190fd5b61064f8460020154610643866003015488611c8590919063ffffffff16565b9063ffffffff611cbe16565b600280860180548890039055600386018054839003905584810180548390039055336000818152602092909252604080832080548a019055519294509184156108fc0291859190818181858888f193505050501580156106b3573d6000803e3d6000fd5b5060008054604080517f23b872dd000000000000000000000000000000000000000000000000000000008152336004820152306024820152604481018990529051600160a060020a03909216926323b872dd926064808401936020939083900390910190829087803b15801561072857600080fd5b505af115801561073c573d6000803e3d6000fd5b505050506040513d602081101561075257600080fd5b506108a79050565b60038401543411156107bb5760408051600080516020611d82833981519152815260206004820152601160248201527f4e6f7420656e6f756768206c6f636b6564000000000000000000000000000000604482015290519081900360640190fd5b6107da8460030154610643866002015434611c8590919063ffffffff16565b600280860180548390039055600386018054349003905584018054829003905533600081815260016020908152604080832080548b019055825481517fa9059cbb0000000000000000000000000000000000000000000000000000000081526004810195909552602485018690529051949550600160a060020a03169363a9059cbb93604480820194918390030190829087803b15801561087a57600080fd5b505af115801561088e573d6000803e3d6000fd5b505050506040513d60208110156108a457600080fd5b50505b505050505050565b336000818152600260209081526040808320805486019055825481517f23b872dd0000000000000000000000000000000000000000000000000000000081526004810195909552306024860152604485018690529051600160a060020a03909116936323b872dd9360648083019493928390030190829087803b15801561093557600080fd5b505af1158015610949573d6000803e3d6000fd5b505050506040513d602081101561095f57600080fd5b505050565b6000806000610971611cf3565b600480548690811061097f57fe5b60009182526020808320600760089093020191820154600160a060020a03168352600190526040909120549094508610610a085760408051600080516020611d82833981519152815260206004820152600e60248201527f4e6f7420656e6f75676820455448000000000000000000000000000000000000604482015290519081900360640190fd5b600384015460ff161515610a6b5760408051600080516020611d82833981519152815260206004820152601060248201527f4e6f7420616e20455448206f6666657200000000000000000000000000000000604482015290519081900360640190fd5b6002840154610a8190879063ffffffff611ce116565b600185015411610ae05760408051600080516020611d82833981519152815260206004820152601060248201527f546f6f206d75636820746f206c6f636b00000000000000000000000000000000604482015290519081900360640190fd5b6006840154604080517f2640f62c000000000000000000000000000000000000000000000000000000008152600481018990529051600160a060020a0390921691632640f62c916024808201926020929091908290030181600087803b158015610b4957600080fd5b505af1158015610b5d573d6000803e3d6000fd5b505050506040513d6020811015610b7357600080fd5b50518454909350610bb49064e8d4a51000906106439063ffffffff6401000000008204811691610ba8918991811690611c8516565b9063ffffffff611c8516565b8582524260208084019182526040808501878152606086018b81523360808801818152600160a08a018181526000848152600689528781206003805480860182559083528d517fc2575a0e9e593c00f959f8c92f12db2869c3395a3b0502d05e2516446f71f85b60058302908101919091559b517fc2575a0e9e593c00f959f8c92f12db2869c3395a3b0502d05e2516446f71f85c8d015597517fc2575a0e9e593c00f959f8c92f12db2869c3395a3b0502d05e2516446f71f85d8c015595517fc2575a0e9e593c00f959f8c92f12db2869c3395a3b0502d05e2516446f71f85e8b015592517fc2575a0e9e593c00f959f8c92f12db2869c3395a3b0502d05e2516446f71f85f9099018054915173ffffffffffffffffffffffffffffffffffffffff19909216600160a060020a039a8b161774ff000000000000000000000000000000000000000019167401000000000000000000000000000000000000000092151592909202919091179055835480820185559382528682209093019390935560078b01548616835290845282822080548d900390556002808b0180548e0190558183528452828220805487019055815483517f23b872dd000000000000000000000000000000000000000000000000000000008152600481019290925230602483015260448201879052925195975091909316936323b872dd93606480840194938390030190829087803b15801561087a57600080fd5b60035490565b600160a060020a031660009081526005602052604090205490565b33600090815260026020526040902054811115610e5b5760408051600080516020611d82833981519152815260206004820152601b60248201527f4e6f7420656e6f75676820617661696c61626c65206173736574730000000000604482015290519081900360640190fd5b33600081815260026020908152604080832080548690039055825481517fa9059cbb0000000000000000000000000000000000000000000000000000000081526004810195909552602485018690529051600160a060020a039091169363a9059cbb9360448083019493928390030190829087803b15801561093557600080fd5b600560205281600052604060002081815481101515610ef757fe5b90600052602060002001600091509150505481565b60045490565b336000908152600160205260409020805434019055565b6004805482908110610f3757fe5b60009182526020909120600890910201805460018201546002830154600384015460048501546005860154600687015460079097015463ffffffff8088169950640100000000909704909616969495939460ff9093169391929091600160a060020a03918216911689565b600160a060020a031660009081526006602052604090205490565b6000806000610fca611cf3565b6004805486908110610fd857fe5b60009182526020808320600760089093020191820154600160a060020a031683526002905260409091205490945086106110615760408051600080516020611d82833981519152815260206004820152601060248201527f4e6f7420656e6f75676820546f6b656e00000000000000000000000000000000604482015290519081900360640190fd5b600384015460ff16156110c35760408051600080516020611d82833981519152815260206004820152601160248201527f4e6f74206120746f6b656e206f66666572000000000000000000000000000000604482015290519081900360640190fd5b60028401546110d990879063ffffffff611ce116565b6001850154116111385760408051600080516020611d82833981519152815260206004820152601060248201527f546f6f206d75636820746f206c6f636b00000000000000000000000000000000604482015290519081900360640190fd5b6006840154604080517f59e94862000000000000000000000000000000000000000000000000000000008152600481018990529051600160a060020a03909216916359e94862916024808201926020929091908290030181600087803b1580156111a157600080fd5b505af11580156111b5573d6000803e3d6000fd5b505050506040513d60208110156111cb57600080fd5b505184549093506112009064e8d4a51000906106439063ffffffff6401000000008204811691610ba8918991811690611c8516565b85825242602080840191825260408085018a8152606086018881523360808801818152600060a08a018181529281526006875285812060038054600180820183559184528c517fc2575a0e9e593c00f959f8c92f12db2869c3395a3b0502d05e2516446f71f85b60058302908101919091559a517fc2575a0e9e593c00f959f8c92f12db2869c3395a3b0502d05e2516446f71f85c8c015596517fc2575a0e9e593c00f959f8c92f12db2869c3395a3b0502d05e2516446f71f85d8b015594517fc2575a0e9e593c00f959f8c92f12db2869c3395a3b0502d05e2516446f71f85e8a015591517fc2575a0e9e593c00f959f8c92f12db2869c3395a3b0502d05e2516446f71f85f9098018054935173ffffffffffffffffffffffffffffffffffffffff19909416600160a060020a03998a161774ff0000000000000000000000000000000000000000191674010000000000000000000000000000000000000000941515949094029390931790925580549283018155815284812090910191909155600789015490931683526002918290529091208054899003905585018054880190559150348211156114035760408051600080516020611d82833981519152815260206004820152600f60248201527f6e6f7420656e6f75676820666565730000000000000000000000000000000000604482015290519081900360640190fd5b8134111561143c5760405133903484900380156108fc02916000818181858888f1935050505015801561143a573d6000803e3d6000fd5b505b503360009081526001602052604090208054909101905550505050565b600060048381548110151561146a57fe5b600091825260209091206008909102016007810154909150600160a060020a031633146114e65760408051600080516020611d82833981519152815260206004820152601160248201527f5065726d697373696f6e2064656e696564000000000000000000000000000000604482015290519081900360640190fd5b63ffffffff90911660019091015550565b60016020526000908152604090205481565b600380548290811061151757fe5b60009182526020909120600590910201805460018201546002830154600384015460049094015492945090929091600160a060020a0381169074010000000000000000000000000000000000000000900460ff1686565b600060038381548110151561157f57fe5b60009182526020909120600460059092020190810154909150600160a060020a031633146115fc5760408051600080516020611d82833981519152815260206004820152601160248201527f5065726d697373696f6e2064656e696564000000000000000000000000000000604482015290519081900360640190fd5b600401805473ffffffffffffffffffffffffffffffffffffffff1916600160a060020a039290921691909117905550565b336000908152600160205260409020548111156116995760408051600080516020611d82833981519152815260206004820152601b60248201527f4e6f7420656e6f75676820617661696c61626c65206173736574730000000000604482015290519081900360640190fd5b33600081815260016020526040808220805434900390555183156108fc0291849190818181858888f193505050501580156116d8573d6000803e3d6000fd5b5050565b6116e4611d35565b846000602002015163ffffffff1681528460016020908102919091015163ffffffff169082015283600260200201516040820152836000602002015160a082015283600160200201518160c0018181525050818160e00190600160a060020a03169081600160a060020a03168152505033816101000190600160a060020a03169081600160a060020a0316815250506000816060018181525050828160800190151590811515815250506005600033600160a060020a0316600160a060020a0316815260200190815260200160002060016004839080600181540180825580915050906001820390600052602060002090600802016000909192909190915060008201518160000160006101000a81548163ffffffff021916908363ffffffff16021790555060208201518160000160046101000a81548163ffffffff021916908363ffffffff160217905550604082015181600101556060820151816002015560808201518160030160006101000a81548160ff02191690831515021790555060a0820151816004015560c0820151816005015560e08201518160060160006101000a815481600160a060020a030219169083600160a060020a031602179055506101008201518160070160006101000a815481600160a060020a030219169083600160a060020a03160217905550505003908060018154018082558091505090600182039060005260206000200160009091929091909150555082801561190d5750600034115b15611928573360009081526001602052604090208054340190555b8215801561193a575060608401516000105b156119fb5760608401805133600081815260026020908152604080832080549095019094558154945184517f23b872dd000000000000000000000000000000000000000000000000000000008152600481019490945230602485015260448401529251600160a060020a03909416936323b872dd936064808501949193918390030190829087803b1580156119ce57600080fd5b505af11580156119e2573d6000803e3d6000fd5b505050506040513d60208110156119f857600080fd5b50505b5050505050565b600660205281600052604060002081815481101515610ef757fe5b60026020526000908152604090205481565b6000806000806000805a9550600387815481101515611a4a57fe5b9060005260206000209060050201945060048560000154815481101515611a6d57fe5b9060005260206000209060080201935042846004015486600101540110925060008560030154119150828015611aa05750815b1515611afb5760408051600080516020611d82833981519152815260206004820152601960248201527f4e6f742076616c696420666f722063616e63656c6174696f6e00000000000000604482015290519081900360640190fd5b600485015474010000000000000000000000000000000000000000900460ff1615611b6457600060028087018290556003870180546007880154600160a060020a0316845260016020526040842080549091019055805491870180549290920390915555611ba4565b600060038601819055600280870180546007880154600160a060020a03168452602083905260408420805490910190558054918701805492909203909155555b60023a5a880361ea600102600302811515611bbb57fe5b6007860154600160a060020a031660009081526001602052604090205491900491508111611c385760408051600080516020611d82833981519152815260206004820181905260248201527f557365722063616e27742070617920666f7220636f6e736f6c69646174696f6e604482015290519081900360640190fd5b6007840154600160a060020a03166000908152600160205260408082208054849003905551339183156108fc02918491818181858888f193505050501580156108a4573d6000803e3d6000fd5b600080831515611c985760009150611cb7565b50828202828482811515611ca857fe5b0414611cb357600080fd5b8091505b5092915050565b600080808311611ccd57600080fd5b8284811515611cd857fe5b04949350505050565b600082820183811015611cb357600080fd5b60c060405190810160405280600081526020016000815260200160008152602001600081526020016000600160a060020a031681526020016000151581525090565b6040805161012081018252600080825260208201819052918101829052606081018290526080810182905260a0810182905260c0810182905260e0810182905261010081019190915290560008c379a000000000000000000000000000000000000000000000000000000000a165627a7a72305820596b4e45de85ba90a3b846b1079da606be85db0d18b787c4393df499eee765c20029",
  "source": "pragma solidity ^0.4.24;\n\nimport \"openzeppelin-solidity/contracts/token/ERC20/IERC20.sol\";\nimport \"openzeppelin-solidity/contracts/math/SafeMath.sol\";\nimport \"./Exchange/IExchange.sol\";\n\ncontract OptionRegistry{// An option registry for a TOKEN/ETH market\n    using SafeMath for uint;\n    using SafeMath for uint32;\n\n    struct OptionOffer{\n        uint32 volatility; // The maximal expected change in price within duration in ppm\n        uint32 fee; // Percentage of distance between current price and volatility to take as fee in ppm\n        uint maxAssetsLocked; //Max amount of assets this option can lock\n        uint assetsLocked;\n        bool ethOrToken;\n        uint duration; // Amount of time an option can last\n        uint minDuration; //Amount of time before option can be taken\n        IExchange exchange;\n        address owner;\n    \n    }\n\n    struct PriceLock{\n        uint offerIndex;\n        uint creation;\n        uint tokenAmount; // Locked rate from the other asset to the asset locked \n        uint ethAmount; // Amount of assets locked\n        address taker;\n        bool ethOrToken; // whether the lock was on eth or the token\n    }\n\n    IERC20 token;\n    mapping(address=>uint) public userEthBalances; //holds the available user balances\n    mapping(address=>uint) public userTokenBalances; //holds the available user balances\n    PriceLock[] public priceLocks; \n    OptionOffer[] public offers;\n    mapping(address => uint[]) public userToOffers;\n    mapping(address => uint[]) public userToLocks;\n\n    constructor(address _token) public{\n        token = IERC20(_token);\n    }\n\n    /**\n    @notice Creates an option offer, attempting to pull tokenAmount and msg.value for UX\n    @param uint32Params An array of all the unit32 params according to:\n    0 - volatility\n    1 - fee\n    \n    @param uintParams An array of all the unit params according to:\n    0 - duration\n    1 - minDuration\n    2 - maxAssetsLocked\n    3 - tokenAmount - if there are any tokens to add to the position\n    @param exchange An IExchange conmpatible on chain exchange\n     */ \n    function addOffer(uint32[2] memory uint32Params, uint[4] memory uintParams, bool eth, IExchange exchange) public payable{\n        OptionOffer memory newOffer;\n        newOffer.volatility = uint32Params[0];\n        newOffer.fee = uint32Params[1];\n        newOffer.maxAssetsLocked = uintParams[2];\n        newOffer.duration = uintParams[0];\n        newOffer.minDuration = uintParams[1];\n        newOffer.exchange = exchange;\n        newOffer.owner = msg.sender;\n        newOffer.assetsLocked = 0;\n        newOffer.ethOrToken = eth;\n\n        userToOffers[msg.sender].push(offers.push(newOffer)-1);\n\n\n        if (eth && msg.value > 0){\n            userEthBalances[msg.sender] += msg.value;\n        }\n\n        if (!eth && uintParams[3] > 0){\n            userTokenBalances[msg.sender] += uintParams[3];\n            token.transferFrom(msg.sender, this, uintParams[3]);\n        }\n\n    }\n\n    /**\n    @notice Locks amountToLock ether at current rate (for duration) and attempts to pull amountToLock*etherRate*volatility*fee\n    @param amountToLock amount of ether to lock\n    @param offerIndex index of offer facilitating the lock\n     */\n\n    function lockEthAtPrice(uint amountToLock, uint offerIndex) public{\n        OptionOffer storage offer = offers[offerIndex];\n        require(amountToLock < userEthBalances[offer.owner], \"Not enough ETH\");\n        require(offer.ethOrToken, \"Not an ETH offer\");\n        require(offer.maxAssetsLocked > amountToLock.add(offer.assetsLocked), \"Too much to lock\");\n        uint tokensUsed = offer.exchange.getTokenToEthOutputPrice(amountToLock);\n        uint feeToTake = tokensUsed.mul(offer.volatility).mul(offer.fee).div(1000000 ** 2);\n\n        PriceLock memory newLock;\n        newLock.offerIndex = offerIndex;\n        newLock.creation = now;\n        newLock.tokenAmount = tokensUsed;\n        newLock.ethAmount = amountToLock;\n        newLock.taker = msg.sender;\n        newLock.ethOrToken = true;\n\n        userToLocks[msg.sender].push(priceLocks.push(newLock)-1);\n        userEthBalances[offer.owner] -= amountToLock;\n        offer.assetsLocked += amountToLock;\n\n        userTokenBalances[msg.sender] += feeToTake;\n\n        token.transferFrom(msg.sender, this, feeToTake);\n    }\n\n    /**\n    @notice Locks amountToLock token at current rate (for duration) and attempts to pull amountToLock*tokenRate*volatility*fee\n    @param amountToLock amount of token to lock\n    @param offerIndex index of offer facilitating the lock\n     */\n\n    function lockTokenAtPrice(uint amountToLock, uint offerIndex) public payable{\n        OptionOffer storage offer = offers[offerIndex];\n        require(amountToLock < userTokenBalances[offer.owner], \"Not enough Token\");\n        require(!offer.ethOrToken, \"Not a token offer\");\n        require(offer.maxAssetsLocked > amountToLock.add(offer.assetsLocked), \"Too much to lock\");\n        uint ethUsed = offer.exchange.getEthToTokenOutputPrice(amountToLock);\n        uint feeToTake = ethUsed.mul(offer.volatility).mul(offer.fee).div(1000000 ** 2);\n\n        PriceLock memory newLock;\n        newLock.offerIndex = offerIndex;\n        newLock.creation = now;\n        newLock.tokenAmount = amountToLock;\n        newLock.ethAmount = ethUsed;\n        newLock.taker = msg.sender;\n        newLock.ethOrToken = false;\n\n        userToLocks[msg.sender].push(priceLocks.push(newLock)-1);\n        userTokenBalances[offer.owner] -= amountToLock;\n        offer.assetsLocked += amountToLock;\n\n        require(msg.value >= feeToTake, \"not enough fees\");\n\n        if (msg.value > feeToTake){\n            msg.sender.transfer(msg.value - feeToTake);\n        }\n\n        userEthBalances[msg.sender] += feeToTake;\n\n    }\n\n    \n\n    /**\n    @notice  Sends locked amount to user and takes the assets according ot the original locked rate\n    @param lockIndex index of price lock\n    */\n    function takeLock(uint lockIndex, uint givenTokens) public payable{\n        PriceLock storage lock = priceLocks[lockIndex];\n        OptionOffer storage offer = offers[lock.offerIndex];\n        require(lock.taker == msg.sender, \"Permission denied\");\n        require(lock.creation + offer.minDuration < now, \"too early to take\");\n        require(lock.creation + offer.duration > now, \"too late to take\");\n\n        if(offer.ethOrToken){\n            require(givenTokens <= lock.tokenAmount, \"Not enough locked\");\n            uint ethToSend = givenTokens.mul(lock.ethAmount).div(lock.tokenAmount);\n            \n            lock.tokenAmount -= givenTokens;\n            lock.ethAmount -= ethToSend;\n            \n            offer.assetsLocked -= ethToSend;\n\n            userTokenBalances[msg.sender] += givenTokens;\n\n            msg.sender.transfer(ethToSend);\n            token.transferFrom(msg.sender, this, givenTokens);\n        }\n        else{\n            require(msg.value <= lock.ethAmount, \"Not enough locked\");\n            uint tokensToSend = msg.value.mul(lock.tokenAmount).div(lock.ethAmount);\n            \n            lock.tokenAmount -= tokensToSend;\n            lock.ethAmount -= msg.value;\n\n            offer.assetsLocked -= tokensToSend;\n\n            userEthBalances[msg.sender] += givenTokens;\n\n            token.transfer(msg.sender, tokensToSend);\n\n            \n        }\n\n    }\n\n    // Canceles an invalid lock\n    function cancelLock(uint lockIndex) public{\n        uint startingGas = gasleft();\n        PriceLock storage lock = priceLocks[lockIndex];\n        OptionOffer storage offer = offers[lock.offerIndex];\n        bool expired = lock.creation + offer.duration < now;\n        bool notEmpty = lock.ethAmount > 0;\n        require(expired && notEmpty, \"Not valid for cancelation\");\n        if(lock.ethOrToken){\n            lock.tokenAmount = 0;\n            userEthBalances[offer.owner] += lock.ethAmount;\n            offer.assetsLocked -= lock.ethAmount;\n            lock.ethAmount = 0;\n        }\n        else{\n            lock.ethAmount = 0;\n            userTokenBalances[offer.owner] += lock.tokenAmount;\n            offer.assetsLocked -= lock.tokenAmount;\n            lock.tokenAmount = 0;\n        }\n\n        // Adding 60k for 2 writes + stipend + min tx\n        uint ethToRefund = (startingGas - gasleft() + 60000)*tx.gasprice *3 /2;\n        require(ethToRefund > userEthBalances[offer.owner], \"User can't pay for consolidation\");\n\n        userEthBalances[offer.owner] -= ethToRefund;\n\n        msg.sender.transfer(ethToRefund);\n    \n    }\n\n    function addToken(uint amount) public{\n        userTokenBalances[msg.sender] += amount;\n        token.transferFrom(msg.sender, this, amount);\n    }\n\n    function addEther() public payable {\n        userEthBalances[msg.sender] += msg.value; \n    }\n\n    function changeOfferMaxAsset(uint offerIndex, uint32 newMaxAsset) public{\n        OptionOffer storage offer = offers[offerIndex];\n        require(msg.sender == offer.owner, \"Permission denied\");\n        offer.maxAssetsLocked = newMaxAsset;\n    }\n\n    function transfer(uint lockIndex, address recipient) public {\n        PriceLock storage lock = priceLocks[lockIndex];\n        require(lock.taker == msg.sender, \"Permission denied\");\n        lock.taker = recipient;\n    }\n\n    function withdrawToken(uint amount) public{\n        require(amount<=userTokenBalances[msg.sender], \"Not enough available assets\");\n        userTokenBalances[msg.sender] -= amount;\n\n        token.transfer(msg.sender, amount);\n    }\n\n    function withdrawEth(uint amount) public payable{\n        require(amount<=userEthBalances[msg.sender], \"Not enough available assets\");\n        userEthBalances[msg.sender] -= msg.value; \n        msg.sender.transfer(amount);\n    }\n\n    function getOffersLength() public view returns(uint){\n        return offers.length;\n    }\n\n    function getLocksLength() public view returns(uint){\n        return priceLocks.length;\n    }\n\n    function getUserOffersLength(address user) public view returns(uint){\n        return userToOffers[user].length;\n    }\n\n    function getUserLocksLength(address user) public view returns(uint){\n        return userToLocks[user].length;\n    }\n\n}",
  "sourcePath": "/home/yoni/Devel/opzia/contracts/OptionRegistry.sol",
  "compiler": {
    "name": "solc",
    "version": "0.4.24+commit.e67f0147.Emscripten.clang"
  },
  "schemaVersion": "3.0.0-beta.2",
  "updatedAt": "2018-12-03T15:09:07.093Z",
  "devdoc": {
    "methods": {
      "addOffer(uint32[2],uint256[4],bool,address)": {
        "params": {
          "exchange": "An IExchange conmpatible on chain exchange",
          "uint32Params": "An array of all the unit32 params according to: 0 - volatility 1 - fee",
          "uintParams": "An array of all the unit params according to: 0 - duration 1 - minDuration 2 - maxAssetsLocked 3 - tokenAmount - if there are any tokens to add to the position"
        }
      },
      "lockEthAtPrice(uint256,uint256)": {
        "params": {
          "amountToLock": "amount of ether to lock",
          "offerIndex": "index of offer facilitating the lock"
        }
      },
      "lockTokenAtPrice(uint256,uint256)": {
        "params": {
          "amountToLock": "amount of token to lock",
          "offerIndex": "index of offer facilitating the lock"
        }
      },
      "takeLock(uint256,uint256)": {
        "params": {
          "lockIndex": "index of price lock"
        }
      }
    }
  },
  "userdoc": {
    "methods": {
      "addOffer(uint32[2],uint256[4],bool,address)": {
        "notice": "Creates an option offer, attempting to pull tokenAmount and msg.value for UX"
      },
      "lockEthAtPrice(uint256,uint256)": {
        "notice": "Locks amountToLock ether at current rate (for duration) and attempts to pull amountToLock*etherRate*volatility*fee"
      },
      "lockTokenAtPrice(uint256,uint256)": {
        "notice": "Locks amountToLock token at current rate (for duration) and attempts to pull amountToLock*tokenRate*volatility*fee"
      },
      "takeLock(uint256,uint256)": {
        "notice": "Sends locked amount to user and takes the assets according ot the original locked rate"
      }
    }
  }
}