{
  "contractName": "OptionRegistry",
  "abi": [
    {
      "constant": true,
      "inputs": [
        {
          "name": "",
          "type": "address"
        },
        {
          "name": "",
          "type": "uint256"
        }
      ],
      "name": "userToOffers",
      "outputs": [
        {
          "name": "",
          "type": "uint256"
        }
      ],
      "payable": false,
      "stateMutability": "view",
      "type": "function"
    },
    {
      "constant": true,
      "inputs": [
        {
          "name": "",
          "type": "uint256"
        }
      ],
      "name": "offers",
      "outputs": [
        {
          "name": "volatility",
          "type": "uint32"
        },
        {
          "name": "fee",
          "type": "uint32"
        },
        {
          "name": "maxAssetsLocked",
          "type": "uint256"
        },
        {
          "name": "assetsLocked",
          "type": "uint256"
        },
        {
          "name": "ethOrToken",
          "type": "bool"
        },
        {
          "name": "duration",
          "type": "uint256"
        },
        {
          "name": "minDuration",
          "type": "uint256"
        },
        {
          "name": "exchange",
          "type": "address"
        },
        {
          "name": "owner",
          "type": "address"
        }
      ],
      "payable": false,
      "stateMutability": "view",
      "type": "function"
    },
    {
      "constant": true,
      "inputs": [
        {
          "name": "",
          "type": "address"
        }
      ],
      "name": "userEthBalances",
      "outputs": [
        {
          "name": "",
          "type": "uint256"
        }
      ],
      "payable": false,
      "stateMutability": "view",
      "type": "function"
    },
    {
      "constant": true,
      "inputs": [
        {
          "name": "",
          "type": "uint256"
        }
      ],
      "name": "priceLocks",
      "outputs": [
        {
          "name": "offerIndex",
          "type": "uint256"
        },
        {
          "name": "creation",
          "type": "uint256"
        },
        {
          "name": "tokenAmount",
          "type": "uint256"
        },
        {
          "name": "ethAmount",
          "type": "uint256"
        },
        {
          "name": "taker",
          "type": "address"
        },
        {
          "name": "ethOrToken",
          "type": "bool"
        }
      ],
      "payable": false,
      "stateMutability": "view",
      "type": "function"
    },
    {
      "constant": true,
      "inputs": [
        {
          "name": "",
          "type": "address"
        },
        {
          "name": "",
          "type": "uint256"
        }
      ],
      "name": "userToLocks",
      "outputs": [
        {
          "name": "",
          "type": "uint256"
        }
      ],
      "payable": false,
      "stateMutability": "view",
      "type": "function"
    },
    {
      "constant": true,
      "inputs": [
        {
          "name": "",
          "type": "address"
        }
      ],
      "name": "userTokenBalances",
      "outputs": [
        {
          "name": "",
          "type": "uint256"
        }
      ],
      "payable": false,
      "stateMutability": "view",
      "type": "function"
    },
    {
      "inputs": [
        {
          "name": "_token",
          "type": "address"
        }
      ],
      "payable": false,
      "stateMutability": "nonpayable",
      "type": "constructor"
    },
    {
      "constant": false,
      "inputs": [
        {
          "name": "uint32Params",
          "type": "uint32[2]"
        },
        {
          "name": "uintParams",
          "type": "uint256[4]"
        },
        {
          "name": "eth",
          "type": "bool"
        },
        {
          "name": "exchange",
          "type": "address"
        }
      ],
      "name": "addOffer",
      "outputs": [],
      "payable": true,
      "stateMutability": "payable",
      "type": "function"
    },
    {
      "constant": false,
      "inputs": [
        {
          "name": "amountToLock",
          "type": "uint256"
        },
        {
          "name": "offerIndex",
          "type": "uint256"
        }
      ],
      "name": "lockEthAtPrice",
      "outputs": [],
      "payable": false,
      "stateMutability": "nonpayable",
      "type": "function"
    },
    {
      "constant": false,
      "inputs": [
        {
          "name": "amountToLock",
          "type": "uint256"
        },
        {
          "name": "offerIndex",
          "type": "uint256"
        }
      ],
      "name": "lockTokenAtPrice",
      "outputs": [],
      "payable": true,
      "stateMutability": "payable",
      "type": "function"
    },
    {
      "constant": false,
      "inputs": [
        {
          "name": "lockIndex",
          "type": "uint256"
        },
        {
          "name": "givenTokens",
          "type": "uint256"
        }
      ],
      "name": "takeLock",
      "outputs": [],
      "payable": true,
      "stateMutability": "payable",
      "type": "function"
    },
    {
      "constant": false,
      "inputs": [
        {
          "name": "lockIndex",
          "type": "uint256"
        }
      ],
      "name": "cancelLock",
      "outputs": [],
      "payable": false,
      "stateMutability": "nonpayable",
      "type": "function"
    },
    {
      "constant": false,
      "inputs": [
        {
          "name": "amount",
          "type": "uint256"
        }
      ],
      "name": "addToken",
      "outputs": [],
      "payable": false,
      "stateMutability": "nonpayable",
      "type": "function"
    },
    {
      "constant": false,
      "inputs": [],
      "name": "addEther",
      "outputs": [],
      "payable": true,
      "stateMutability": "payable",
      "type": "function"
    },
    {
      "constant": false,
      "inputs": [
        {
          "name": "offerIndex",
          "type": "uint256"
        },
        {
          "name": "newMaxAsset",
          "type": "uint32"
        }
      ],
      "name": "changeOfferMaxAsset",
      "outputs": [],
      "payable": false,
      "stateMutability": "nonpayable",
      "type": "function"
    },
    {
      "constant": false,
      "inputs": [
        {
          "name": "lockIndex",
          "type": "uint256"
        },
        {
          "name": "recipient",
          "type": "address"
        }
      ],
      "name": "transfer",
      "outputs": [],
      "payable": false,
      "stateMutability": "nonpayable",
      "type": "function"
    },
    {
      "constant": false,
      "inputs": [
        {
          "name": "amount",
          "type": "uint256"
        }
      ],
      "name": "withdrawToken",
      "outputs": [],
      "payable": false,
      "stateMutability": "nonpayable",
      "type": "function"
    },
    {
      "constant": false,
      "inputs": [
        {
          "name": "amount",
          "type": "uint256"
        }
      ],
      "name": "withdrawEth",
      "outputs": [],
      "payable": true,
      "stateMutability": "payable",
      "type": "function"
    },
    {
      "constant": true,
      "inputs": [],
      "name": "getOffersLength",
      "outputs": [
        {
          "name": "",
          "type": "uint256"
        }
      ],
      "payable": false,
      "stateMutability": "view",
      "type": "function"
    },
    {
      "constant": true,
      "inputs": [],
      "name": "getLocksLength",
      "outputs": [
        {
          "name": "",
          "type": "uint256"
        }
      ],
      "payable": false,
      "stateMutability": "view",
      "type": "function"
    },
    {
      "constant": true,
      "inputs": [
        {
          "name": "user",
          "type": "address"
        }
      ],
      "name": "getUserOffersLength",
      "outputs": [
        {
          "name": "",
          "type": "uint256"
        }
      ],
      "payable": false,
      "stateMutability": "view",
      "type": "function"
    },
    {
      "constant": true,
      "inputs": [
        {
          "name": "user",
          "type": "address"
        }
      ],
      "name": "getUserLocksLength",
      "outputs": [
        {
          "name": "",
          "type": "uint256"
        }
      ],
      "payable": false,
      "stateMutability": "view",
      "type": "function"
    }
  ],
  "bytecode": "0x608060405234801561001057600080fd5b5060405160208061313e83398101806040528101908080519060200190929190505050806000806101000a81548173ffffffffffffffffffffffffffffffffffffffff021916908373ffffffffffffffffffffffffffffffffffffffff160217905550506130bb806100836000396000f30060806040526004361061011d576000357c0100000000000000000000000000000000000000000000000000000000900463ffffffff1680630d31d69114610122578063179d375c1461014c5780632b78c6bd14610179578063489c18b0146101b05780634b8dc189146101db57806350baa6221461023257806356799e3c1461025f57806373c2dc12146102c05780638894dd2b146102eb5780638a72ea6a146102f55780638d85bb50146103e25780638f7683cd146104395780639bda609714610463578063a11c9a91146104a0578063a57b52d2146104f7578063b7760c8f1461058b578063c311d049146105d8578063dfb50b5d146105f8578063e6088b2814610698578063e7328000146106f9578063f3c73bd114610750575b600080fd5b61014a600480360381019080803590602001909291908035906020019092919050505061077d565b005b34801561015857600080fd5b5061017760048036038101908080359060200190929190505050610e8a565b005b34801561018557600080fd5b506101ae600480360381019080803590602001909291908035906020019092919050505061100e565b005b3480156101bc57600080fd5b506101c5611714565b6040518082815260200191505060405180910390f35b3480156101e757600080fd5b5061021c600480360381019080803573ffffffffffffffffffffffffffffffffffffffff169060200190929190505050611721565b6040518082815260200191505060405180910390f35b34801561023e57600080fd5b5061025d6004803603810190808035906020019092919050505061176d565b005b34801561026b57600080fd5b506102aa600480360381019080803573ffffffffffffffffffffffffffffffffffffffff16906020019092919080359060200190929190505050611974565b6040518082815260200191505060405180910390f35b3480156102cc57600080fd5b506102d56119a4565b6040518082815260200191505060405180910390f35b6102f36119b1565b005b34801561030157600080fd5b5061032060048036038101908080359060200190929190505050611a00565b604051808a63ffffffff1663ffffffff1681526020018963ffffffff1663ffffffff168152602001888152602001878152602001861515151581526020018581526020018481526020018373ffffffffffffffffffffffffffffffffffffffff1673ffffffffffffffffffffffffffffffffffffffff1681526020018273ffffffffffffffffffffffffffffffffffffffff1673ffffffffffffffffffffffffffffffffffffffff168152602001995050505050505050505060405180910390f35b3480156103ee57600080fd5b50610423600480360381019080803573ffffffffffffffffffffffffffffffffffffffff169060200190929190505050611aca565b6040518082815260200191505060405180910390f35b6104616004803603810190808035906020019092919080359060200190929190505050611b16565b005b34801561046f57600080fd5b5061049e60048036038101908080359060200190929190803563ffffffff1690602001909291905050506121b3565b005b3480156104ac57600080fd5b506104e1600480360381019080803573ffffffffffffffffffffffffffffffffffffffff1690602001909291905050506122af565b6040518082815260200191505060405180910390f35b34801561050357600080fd5b50610522600480360381019080803590602001909291905050506122c7565b604051808781526020018681526020018581526020018481526020018373ffffffffffffffffffffffffffffffffffffffff1673ffffffffffffffffffffffffffffffffffffffff16815260200182151515158152602001965050505050505060405180910390f35b34801561059757600080fd5b506105d660048036038101908080359060200190929190803573ffffffffffffffffffffffffffffffffffffffff16906020019092919050505061233f565b005b6105f66004803603810190808035906020019092919050505061246f565b005b61069660048036038101908080604001906002806020026040519081016040528092919082600260200280828437820191505050505091929192908060800190600480602002604051908101604052809291908260046020028082843782019150505050509192919290803515159060200190929190803573ffffffffffffffffffffffffffffffffffffffff1690602001909291905050506125bd565b005b3480156106a457600080fd5b506106e3600480360381019080803573ffffffffffffffffffffffffffffffffffffffff16906020019092919080359060200190929190505050612af3565b6040518082815260200191505060405180910390f35b34801561070557600080fd5b5061073a600480360381019080803573ffffffffffffffffffffffffffffffffffffffff169060200190929190505050612b23565b6040518082815260200191505060405180910390f35b34801561075c57600080fd5b5061077b60048036038101908080359060200190929190505050612b3b565b005b60008060008060038681548110151561079257fe5b90600052602060002090600502019350600484600001548154811015156107b557fe5b906000526020600020906008020192503373ffffffffffffffffffffffffffffffffffffffff168460040160009054906101000a900473ffffffffffffffffffffffffffffffffffffffff1673ffffffffffffffffffffffffffffffffffffffff1614151561088c576040517f08c379a00000000000000000000000000000000000000000000000000000000081526004018080602001828103825260118152602001807f5065726d697373696f6e2064656e69656400000000000000000000000000000081525060200191505060405180910390fd5b42836005015485600101540110151561090d576040517f08c379a00000000000000000000000000000000000000000000000000000000081526004018080602001828103825260118152602001807f746f6f206561726c7920746f2074616b6500000000000000000000000000000081525060200191505060405180910390fd5b42836004015485600101540111151561098e576040517f08c379a00000000000000000000000000000000000000000000000000000000081526004018080602001828103825260108152602001807f746f6f206c61746520746f2074616b650000000000000000000000000000000081525060200191505060405180910390fd5b8260030160009054906101000a900460ff1615610c535783600201548511151515610a21576040517f08c379a00000000000000000000000000000000000000000000000000000000081526004018080602001828103825260118152602001807f4e6f7420656e6f756768206c6f636b656400000000000000000000000000000081525060200191505060405180910390fd5b610a4e8460020154610a40866003015488612f3090919063ffffffff16565b612f6e90919063ffffffff16565b915084846002016000828254039250508190555081846003016000828254039250508190555081836002016000828254039250508190555084600260003373ffffffffffffffffffffffffffffffffffffffff1673ffffffffffffffffffffffffffffffffffffffff168152602001908152602001600020600082825401925050819055503373ffffffffffffffffffffffffffffffffffffffff166108fc839081150290604051600060405180830381858888f19350505050158015610b19573d6000803e3d6000fd5b506000809054906101000a900473ffffffffffffffffffffffffffffffffffffffff1673ffffffffffffffffffffffffffffffffffffffff166323b872dd3330886040518463ffffffff167c0100000000000000000000000000000000000000000000000000000000028152600401808473ffffffffffffffffffffffffffffffffffffffff1673ffffffffffffffffffffffffffffffffffffffff1681526020018373ffffffffffffffffffffffffffffffffffffffff1673ffffffffffffffffffffffffffffffffffffffff1681526020018281526020019350505050602060405180830381600087803b158015610c1257600080fd5b505af1158015610c26573d6000803e3d6000fd5b505050506040513d6020811015610c3c57600080fd5b810190808051906020019092919050505050610e82565b83600301543411151515610ccf576040517f08c379a00000000000000000000000000000000000000000000000000000000081526004018080602001828103825260118152602001807f4e6f7420656e6f756768206c6f636b656400000000000000000000000000000081525060200191505060405180910390fd5b610cfc8460030154610cee866002015434612f3090919063ffffffff16565b612f6e90919063ffffffff16565b905080846002016000828254039250508190555034846003016000828254039250508190555080836002016000828254039250508190555084600160003373ffffffffffffffffffffffffffffffffffffffff1673ffffffffffffffffffffffffffffffffffffffff168152602001908152602001600020600082825401925050819055506000809054906101000a900473ffffffffffffffffffffffffffffffffffffffff1673ffffffffffffffffffffffffffffffffffffffff1663a9059cbb33836040518363ffffffff167c0100000000000000000000000000000000000000000000000000000000028152600401808373ffffffffffffffffffffffffffffffffffffffff1673ffffffffffffffffffffffffffffffffffffffff16815260200182815260200192505050602060405180830381600087803b158015610e4557600080fd5b505af1158015610e59573d6000803e3d6000fd5b505050506040513d6020811015610e6f57600080fd5b8101908080519060200190929190505050505b505050505050565b80600260003373ffffffffffffffffffffffffffffffffffffffff1673ffffffffffffffffffffffffffffffffffffffff168152602001908152602001600020600082825401925050819055506000809054906101000a900473ffffffffffffffffffffffffffffffffffffffff1673ffffffffffffffffffffffffffffffffffffffff166323b872dd3330846040518463ffffffff167c0100000000000000000000000000000000000000000000000000000000028152600401808473ffffffffffffffffffffffffffffffffffffffff1673ffffffffffffffffffffffffffffffffffffffff1681526020018373ffffffffffffffffffffffffffffffffffffffff1673ffffffffffffffffffffffffffffffffffffffff1681526020018281526020019350505050602060405180830381600087803b158015610fcf57600080fd5b505af1158015610fe3573d6000803e3d6000fd5b505050506040513d6020811015610ff957600080fd5b81019080805190602001909291905050505050565b600080600061101b612fb9565b60048581548110151561102a57fe5b90600052602060002090600802019350600160008560070160009054906101000a900473ffffffffffffffffffffffffffffffffffffffff1673ffffffffffffffffffffffffffffffffffffffff1673ffffffffffffffffffffffffffffffffffffffff1681526020019081526020016000205486101515611114576040517f08c379a000000000000000000000000000000000000000000000000000000000815260040180806020018281038252600e8152602001807f4e6f7420656e6f7567682045544800000000000000000000000000000000000081525060200191505060405180910390fd5b8360030160009054906101000a900460ff16151561119a576040517f08c379a00000000000000000000000000000000000000000000000000000000081526004018080602001828103825260108152602001807f4e6f7420616e20455448206f666665720000000000000000000000000000000081525060200191505060405180910390fd5b6111b1846002015487612f9890919063ffffffff16565b846001015411151561122b576040517f08c379a00000000000000000000000000000000000000000000000000000000081526004018080602001828103825260108152602001807f546f6f206d75636820746f206c6f636b0000000000000000000000000000000081525060200191505060405180910390fd5b8360060160009054906101000a900473ffffffffffffffffffffffffffffffffffffffff1673ffffffffffffffffffffffffffffffffffffffff16632640f62c876040518263ffffffff167c010000000000000000000000000000000000000000000000000000000002815260040180828152602001915050602060405180830381600087803b1580156112be57600080fd5b505af11580156112d2573d6000803e3d6000fd5b505050506040513d60208110156112e857600080fd5b8101908080519060200190929190505050925061136b64e8d4a5100061135d8660000160049054906101000a900463ffffffff1663ffffffff1661134f8860000160009054906101000a900463ffffffff1663ffffffff1688612f3090919063ffffffff16565b612f3090919063ffffffff16565b612f6e90919063ffffffff16565b91508481600001818152505042816020018181525050828160400181815250508581606001818152505033816080019073ffffffffffffffffffffffffffffffffffffffff16908173ffffffffffffffffffffffffffffffffffffffff168152505060018160a0019015159081151581525050600660003373ffffffffffffffffffffffffffffffffffffffff1673ffffffffffffffffffffffffffffffffffffffff1681526020019081526020016000206001600383908060018154018082558091505090600182039060005260206000209060050201600090919290919091506000820151816000015560208201518160010155604082015181600201556060820151816003015560808201518160040160006101000a81548173ffffffffffffffffffffffffffffffffffffffff021916908373ffffffffffffffffffffffffffffffffffffffff16021790555060a08201518160040160146101000a81548160ff021916908315150217905550505003908060018154018082558091505090600182039060005260206000200160009091929091909150555085600160008660070160009054906101000a900473ffffffffffffffffffffffffffffffffffffffff1673ffffffffffffffffffffffffffffffffffffffff1673ffffffffffffffffffffffffffffffffffffffff1681526020019081526020016000206000828254039250508190555085846002016000828254019250508190555081600260003373ffffffffffffffffffffffffffffffffffffffff1673ffffffffffffffffffffffffffffffffffffffff168152602001908152602001600020600082825401925050819055506000809054906101000a900473ffffffffffffffffffffffffffffffffffffffff1673ffffffffffffffffffffffffffffffffffffffff166323b872dd3330856040518463ffffffff167c0100000000000000000000000000000000000000000000000000000000028152600401808473ffffffffffffffffffffffffffffffffffffffff1673ffffffffffffffffffffffffffffffffffffffff1681526020018373ffffffffffffffffffffffffffffffffffffffff1673ffffffffffffffffffffffffffffffffffffffff1681526020018281526020019350505050602060405180830381600087803b1580156116d057600080fd5b505af11580156116e4573d6000803e3d6000fd5b505050506040513d60208110156116fa57600080fd5b810190808051906020019092919050505050505050505050565b6000600380549050905090565b6000600560008373ffffffffffffffffffffffffffffffffffffffff1673ffffffffffffffffffffffffffffffffffffffff168152602001908152602001600020805490509050919050565b600260003373ffffffffffffffffffffffffffffffffffffffff1673ffffffffffffffffffffffffffffffffffffffff168152602001908152602001600020548111151515611824576040517f08c379a000000000000000000000000000000000000000000000000000000000815260040180806020018281038252601b8152602001807f4e6f7420656e6f75676820617661696c61626c6520617373657473000000000081525060200191505060405180910390fd5b80600260003373ffffffffffffffffffffffffffffffffffffffff1673ffffffffffffffffffffffffffffffffffffffff168152602001908152602001600020600082825403925050819055506000809054906101000a900473ffffffffffffffffffffffffffffffffffffffff1673ffffffffffffffffffffffffffffffffffffffff1663a9059cbb33836040518363ffffffff167c0100000000000000000000000000000000000000000000000000000000028152600401808373ffffffffffffffffffffffffffffffffffffffff1673ffffffffffffffffffffffffffffffffffffffff16815260200182815260200192505050602060405180830381600087803b15801561193557600080fd5b505af1158015611949573d6000803e3d6000fd5b505050506040513d602081101561195f57600080fd5b81019080805190602001909291905050505050565b60056020528160005260406000208181548110151561198f57fe5b90600052602060002001600091509150505481565b6000600480549050905090565b34600160003373ffffffffffffffffffffffffffffffffffffffff1673ffffffffffffffffffffffffffffffffffffffff16815260200190815260200160002060008282540192505081905550565b600481815481101515611a0f57fe5b90600052602060002090600802016000915090508060000160009054906101000a900463ffffffff16908060000160049054906101000a900463ffffffff16908060010154908060020154908060030160009054906101000a900460ff16908060040154908060050154908060060160009054906101000a900473ffffffffffffffffffffffffffffffffffffffff16908060070160009054906101000a900473ffffffffffffffffffffffffffffffffffffffff16905089565b6000600660008373ffffffffffffffffffffffffffffffffffffffff1673ffffffffffffffffffffffffffffffffffffffff168152602001908152602001600020805490509050919050565b6000806000611b23612fb9565b600485815481101515611b3257fe5b90600052602060002090600802019350600260008560070160009054906101000a900473ffffffffffffffffffffffffffffffffffffffff1673ffffffffffffffffffffffffffffffffffffffff1673ffffffffffffffffffffffffffffffffffffffff1681526020019081526020016000205486101515611c1c576040517f08c379a00000000000000000000000000000000000000000000000000000000081526004018080602001828103825260108152602001807f4e6f7420656e6f75676820546f6b656e0000000000000000000000000000000081525060200191505060405180910390fd5b8360030160009054906101000a900460ff16151515611ca3576040517f08c379a00000000000000000000000000000000000000000000000000000000081526004018080602001828103825260118152602001807f4e6f74206120746f6b656e206f6666657200000000000000000000000000000081525060200191505060405180910390fd5b611cba846002015487612f9890919063ffffffff16565b8460010154111515611d34576040517f08c379a00000000000000000000000000000000000000000000000000000000081526004018080602001828103825260108152602001807f546f6f206d75636820746f206c6f636b0000000000000000000000000000000081525060200191505060405180910390fd5b8360060160009054906101000a900473ffffffffffffffffffffffffffffffffffffffff1673ffffffffffffffffffffffffffffffffffffffff166359e94862876040518263ffffffff167c010000000000000000000000000000000000000000000000000000000002815260040180828152602001915050602060405180830381600087803b158015611dc757600080fd5b505af1158015611ddb573d6000803e3d6000fd5b505050506040513d6020811015611df157600080fd5b81019080805190602001909291905050509250611e7464e8d4a51000611e668660000160049054906101000a900463ffffffff1663ffffffff16611e588860000160009054906101000a900463ffffffff1663ffffffff1688612f3090919063ffffffff16565b612f3090919063ffffffff16565b612f6e90919063ffffffff16565b91508481600001818152505042816020018181525050858160400181815250508281606001818152505033816080019073ffffffffffffffffffffffffffffffffffffffff16908173ffffffffffffffffffffffffffffffffffffffff168152505060008160a0019015159081151581525050600660003373ffffffffffffffffffffffffffffffffffffffff1673ffffffffffffffffffffffffffffffffffffffff1681526020019081526020016000206001600383908060018154018082558091505090600182039060005260206000209060050201600090919290919091506000820151816000015560208201518160010155604082015181600201556060820151816003015560808201518160040160006101000a81548173ffffffffffffffffffffffffffffffffffffffff021916908373ffffffffffffffffffffffffffffffffffffffff16021790555060a08201518160040160146101000a81548160ff021916908315150217905550505003908060018154018082558091505090600182039060005260206000200160009091929091909150555085600260008660070160009054906101000a900473ffffffffffffffffffffffffffffffffffffffff1673ffffffffffffffffffffffffffffffffffffffff1673ffffffffffffffffffffffffffffffffffffffff1681526020019081526020016000206000828254039250508190555085846002016000828254019250508190555081341015151561210c576040517f08c379a000000000000000000000000000000000000000000000000000000000815260040180806020018281038252600f8152602001807f6e6f7420656e6f7567682066656573000000000000000000000000000000000081525060200191505060405180910390fd5b8134111561215e573373ffffffffffffffffffffffffffffffffffffffff166108fc8334039081150290604051600060405180830381858888f1935050505015801561215c573d6000803e3d6000fd5b505b81600160003373ffffffffffffffffffffffffffffffffffffffff1673ffffffffffffffffffffffffffffffffffffffff16815260200190815260200160002060008282540192505081905550505050505050565b60006004838154811015156121c457fe5b906000526020600020906008020190508060070160009054906101000a900473ffffffffffffffffffffffffffffffffffffffff1673ffffffffffffffffffffffffffffffffffffffff163373ffffffffffffffffffffffffffffffffffffffff1614151561229b576040517f08c379a00000000000000000000000000000000000000000000000000000000081526004018080602001828103825260118152602001807f5065726d697373696f6e2064656e69656400000000000000000000000000000081525060200191505060405180910390fd5b8163ffffffff168160010181905550505050565b60016020528060005260406000206000915090505481565b6003818154811015156122d657fe5b90600052602060002090600502016000915090508060000154908060010154908060020154908060030154908060040160009054906101000a900473ffffffffffffffffffffffffffffffffffffffff16908060040160149054906101000a900460ff16905086565b600060038381548110151561235057fe5b906000526020600020906005020190503373ffffffffffffffffffffffffffffffffffffffff168160040160009054906101000a900473ffffffffffffffffffffffffffffffffffffffff1673ffffffffffffffffffffffffffffffffffffffff16141515612427576040517f08c379a00000000000000000000000000000000000000000000000000000000081526004018080602001828103825260118152602001807f5065726d697373696f6e2064656e69656400000000000000000000000000000081525060200191505060405180910390fd5b818160040160006101000a81548173ffffffffffffffffffffffffffffffffffffffff021916908373ffffffffffffffffffffffffffffffffffffffff160217905550505050565b600160003373ffffffffffffffffffffffffffffffffffffffff1673ffffffffffffffffffffffffffffffffffffffff168152602001908152602001600020548111151515612526576040517f08c379a000000000000000000000000000000000000000000000000000000000815260040180806020018281038252601b8152602001807f4e6f7420656e6f75676820617661696c61626c6520617373657473000000000081525060200191505060405180910390fd5b34600160003373ffffffffffffffffffffffffffffffffffffffff1673ffffffffffffffffffffffffffffffffffffffff168152602001908152602001600020600082825403925050819055503373ffffffffffffffffffffffffffffffffffffffff166108fc829081150290604051600060405180830381858888f193505050501580156125b9573d6000803e3d6000fd5b5050565b6125c5613008565b8460006002811015156125d457fe5b6020020151816000019063ffffffff16908163ffffffff16815250508460016002811015156125ff57fe5b6020020151816020019063ffffffff16908163ffffffff168152505083600260048110151561262a57fe5b602002015181604001818152505083600060048110151561264757fe5b60200201518160a001818152505083600160048110151561266457fe5b60200201518160c0018181525050818160e0019073ffffffffffffffffffffffffffffffffffffffff16908173ffffffffffffffffffffffffffffffffffffffff16815250503381610100019073ffffffffffffffffffffffffffffffffffffffff16908173ffffffffffffffffffffffffffffffffffffffff1681525050600081606001818152505082816080019015159081151581525050600560003373ffffffffffffffffffffffffffffffffffffffff1673ffffffffffffffffffffffffffffffffffffffff16815260200190815260200160002060016004839080600181540180825580915050906001820390600052602060002090600802016000909192909190915060008201518160000160006101000a81548163ffffffff021916908363ffffffff16021790555060208201518160000160046101000a81548163ffffffff021916908363ffffffff160217905550604082015181600101556060820151816002015560808201518160030160006101000a81548160ff02191690831515021790555060a0820151816004015560c0820151816005015560e08201518160060160006101000a81548173ffffffffffffffffffffffffffffffffffffffff021916908373ffffffffffffffffffffffffffffffffffffffff1602179055506101008201518160070160006101000a81548173ffffffffffffffffffffffffffffffffffffffff021916908373ffffffffffffffffffffffffffffffffffffffff16021790555050500390806001815401808255809150509060018203906000526020600020016000909192909190915055508280156128cb5750600034115b1561291e5734600160003373ffffffffffffffffffffffffffffffffffffffff1673ffffffffffffffffffffffffffffffffffffffff168152602001908152602001600020600082825401925050819055505b8215801561293f5750600084600360048110151561293857fe5b6020020151115b15612aec5783600360048110151561295357fe5b6020020151600260003373ffffffffffffffffffffffffffffffffffffffff1673ffffffffffffffffffffffffffffffffffffffff168152602001908152602001600020600082825401925050819055506000809054906101000a900473ffffffffffffffffffffffffffffffffffffffff1673ffffffffffffffffffffffffffffffffffffffff166323b872dd33308760036004811015156129f257fe5b60200201516040518463ffffffff167c0100000000000000000000000000000000000000000000000000000000028152600401808473ffffffffffffffffffffffffffffffffffffffff1673ffffffffffffffffffffffffffffffffffffffff1681526020018373ffffffffffffffffffffffffffffffffffffffff1673ffffffffffffffffffffffffffffffffffffffff1681526020018281526020019350505050602060405180830381600087803b158015612aaf57600080fd5b505af1158015612ac3573d6000803e3d6000fd5b505050506040513d6020811015612ad957600080fd5b8101908080519060200190929190505050505b5050505050565b600660205281600052604060002081815481101515612b0e57fe5b90600052602060002001600091509150505481565b60026020528060005260406000206000915090505481565b6000806000806000805a9550600387815481101515612b5657fe5b9060005260206000209060050201945060048560000154815481101515612b7957fe5b9060005260206000209060080201935042846004015486600101540110925060008560030154119150828015612bac5750815b1515612c20576040517f08c379a00000000000000000000000000000000000000000000000000000000081526004018080602001828103825260198152602001807f4e6f742076616c696420666f722063616e63656c6174696f6e0000000000000081525060200191505060405180910390fd5b8460040160149054906101000a900460ff1615612cdb57600085600201819055508460030154600160008660070160009054906101000a900473ffffffffffffffffffffffffffffffffffffffff1673ffffffffffffffffffffffffffffffffffffffff1673ffffffffffffffffffffffffffffffffffffffff168152602001908152602001600020600082825401925050819055508460030154846002016000828254039250508190555060008560030181905550612d7b565b600085600301819055508460020154600260008660070160009054906101000a900473ffffffffffffffffffffffffffffffffffffffff1673ffffffffffffffffffffffffffffffffffffffff1673ffffffffffffffffffffffffffffffffffffffff1681526020019081526020016000206000828254019250508190555084600201548460020160008282540392505081905550600085600201819055505b600260033a61ea605a8a03010202811515612d9257fe5b049050600160008560070160009054906101000a900473ffffffffffffffffffffffffffffffffffffffff1673ffffffffffffffffffffffffffffffffffffffff1673ffffffffffffffffffffffffffffffffffffffff1681526020019081526020016000205481111515612e6f576040517f08c379a00000000000000000000000000000000000000000000000000000000081526004018080602001828103825260208152602001807f557365722063616e27742070617920666f7220636f6e736f6c69646174696f6e81525060200191505060405180910390fd5b80600160008660070160009054906101000a900473ffffffffffffffffffffffffffffffffffffffff1673ffffffffffffffffffffffffffffffffffffffff1673ffffffffffffffffffffffffffffffffffffffff168152602001908152602001600020600082825403925050819055503373ffffffffffffffffffffffffffffffffffffffff166108fc829081150290604051600060405180830381858888f19350505050158015612f26573d6000803e3d6000fd5b5050505050505050565b6000806000841415612f455760009150612f67565b8284029050828482811515612f5657fe5b04141515612f6357600080fd5b8091505b5092915050565b600080600083111515612f8057600080fd5b8284811515612f8b57fe5b0490508091505092915050565b6000808284019050838110151515612faf57600080fd5b8091505092915050565b60c06040519081016040528060008152602001600081526020016000815260200160008152602001600073ffffffffffffffffffffffffffffffffffffffff1681526020016000151581525090565b61012060405190810160405280600063ffffffff168152602001600063ffffffff16815260200160008152602001600081526020016000151581526020016000815260200160008152602001600073ffffffffffffffffffffffffffffffffffffffff168152602001600073ffffffffffffffffffffffffffffffffffffffff16815250905600a165627a7a723058208cf669a163884e30b30a1d7afc4d47ca2e8ea82c873b735c94b481c1388d91410029",
  "source": "pragma solidity ^0.4.24;\n\nimport \"openzeppelin-solidity/contracts/token/ERC20/IERC20.sol\";\nimport \"openzeppelin-solidity/contracts/math/SafeMath.sol\";\nimport \"./Exchange/IExchange.sol\";\n\ncontract OptionRegistry{// An option registry for a TOKEN/ETH market\n    using SafeMath for uint;\n    using SafeMath for uint32;\n\n    struct OptionOffer{\n        uint32 volatility; // The maximal expected change in price within duration in ppm\n        uint32 fee; // Percentage of distance between current price and volatility to take as fee in ppm\n        uint maxAssetsLocked; //Max amount of assets this option can lock\n        uint assetsLocked;\n        bool ethOrToken;\n        uint duration; // Amount of time an option can last\n        uint minDuration; //Amount of time before option can be taken\n        IExchange exchange;\n        address owner;\n    \n    }\n\n    struct PriceLock{\n        uint offerIndex;\n        uint creation;\n        uint tokenAmount; // Locked rate from the other asset to the asset locked \n        uint ethAmount; // Amount of assets locked\n        address taker;\n        bool ethOrToken; // whether the lock was on eth or the token\n    }\n\n    IERC20 token;\n    mapping(address=>uint) public userEthBalances; //holds the available user balances\n    mapping(address=>uint) public userTokenBalances; //holds the available user balances\n    PriceLock[] public priceLocks; \n    OptionOffer[] public offers;\n    mapping(address => uint[]) public userToOffers;\n    mapping(address => uint[]) public userToLocks;\n\n    constructor(address _token) public{\n        token = IERC20(_token);\n    }\n\n    /**\n    @notice Creates an option offer, attempting to pull tokenAmount and msg.value for UX\n    @param uint32Params An array of all the unit32 params according to:\n    0 - volatility\n    1 - fee\n    \n    @param uintParams An array of all the unit params according to:\n    0 - duration\n    1 - minDuration\n    2 - maxAssetsLocked\n    3 - tokenAmount - if there are any tokens to add to the position\n    @param exchange An IExchange conmpatible on chain exchange\n     */ \n    function addOffer(uint32[2] memory uint32Params, uint[4] memory uintParams, bool eth, IExchange exchange) public payable{\n        OptionOffer memory newOffer;\n        newOffer.volatility = uint32Params[0];\n        newOffer.fee = uint32Params[1];\n        newOffer.maxAssetsLocked = uintParams[2];\n        newOffer.duration = uintParams[0];\n        newOffer.minDuration = uintParams[1];\n        newOffer.exchange = exchange;\n        newOffer.owner = msg.sender;\n        newOffer.assetsLocked = 0;\n        newOffer.ethOrToken = eth;\n\n        userToOffers[msg.sender].push(offers.push(newOffer)-1);\n\n\n        if (eth && msg.value > 0){\n            userEthBalances[msg.sender] += msg.value;\n        }\n\n        if (!eth && uintParams[3] > 0){\n            userTokenBalances[msg.sender] += uintParams[3];\n            token.transferFrom(msg.sender, this, uintParams[3]);\n        }\n\n    }\n\n    /**\n    @notice Locks amountToLock ether at current rate (for duration) and attempts to pull amountToLock*etherRate*volatility*fee\n    @param amountToLock amount of ether to lock\n    @param offerIndex index of offer facilitating the lock\n     */\n\n    function lockEthAtPrice(uint amountToLock, uint offerIndex) public{\n        OptionOffer storage offer = offers[offerIndex];\n        require(amountToLock < userEthBalances[offer.owner], \"Not enough ETH\");\n        require(offer.ethOrToken, \"Not an ETH offer\");\n        require(offer.maxAssetsLocked > amountToLock.add(offer.assetsLocked), \"Too much to lock\");\n        uint tokensUsed = offer.exchange.getTokenToEthOutputPrice(amountToLock);\n        uint feeToTake = tokensUsed.mul(offer.volatility).mul(offer.fee).div(1000000 ** 2);\n\n        PriceLock memory newLock;\n        newLock.offerIndex = offerIndex;\n        newLock.creation = now;\n        newLock.tokenAmount = tokensUsed;\n        newLock.ethAmount = amountToLock;\n        newLock.taker = msg.sender;\n        newLock.ethOrToken = true;\n\n        userToLocks[msg.sender].push(priceLocks.push(newLock)-1);\n        userEthBalances[offer.owner] -= amountToLock;\n        offer.assetsLocked += amountToLock;\n\n        userTokenBalances[msg.sender] += feeToTake;\n\n        token.transferFrom(msg.sender, this, feeToTake);\n    }\n\n    /**\n    @notice Locks amountToLock token at current rate (for duration) and attempts to pull amountToLock*tokenRate*volatility*fee\n    @param amountToLock amount of token to lock\n    @param offerIndex index of offer facilitating the lock\n     */\n\n    function lockTokenAtPrice(uint amountToLock, uint offerIndex) public payable{\n        OptionOffer storage offer = offers[offerIndex];\n        require(amountToLock < userTokenBalances[offer.owner], \"Not enough Token\");\n        require(!offer.ethOrToken, \"Not a token offer\");\n        require(offer.maxAssetsLocked > amountToLock.add(offer.assetsLocked), \"Too much to lock\");\n        uint ethUsed = offer.exchange.getEthToTokenOutputPrice(amountToLock);\n        uint feeToTake = ethUsed.mul(offer.volatility).mul(offer.fee).div(1000000 ** 2);\n\n        PriceLock memory newLock;\n        newLock.offerIndex = offerIndex;\n        newLock.creation = now;\n        newLock.tokenAmount = amountToLock;\n        newLock.ethAmount = ethUsed;\n        newLock.taker = msg.sender;\n        newLock.ethOrToken = false;\n\n        userToLocks[msg.sender].push(priceLocks.push(newLock)-1);\n        userTokenBalances[offer.owner] -= amountToLock;\n        offer.assetsLocked += amountToLock;\n\n        require(msg.value >= feeToTake, \"not enough fees\");\n\n        if (msg.value > feeToTake){\n            msg.sender.transfer(msg.value - feeToTake);\n        }\n\n        userEthBalances[msg.sender] += feeToTake;\n\n    }\n\n    \n\n    /**\n    @notice  Sends locked amount to user and takes the assets according ot the original locked rate\n    @param lockIndex index of price lock\n    */\n    function takeLock(uint lockIndex, uint givenTokens) public payable{\n        PriceLock storage lock = priceLocks[lockIndex];\n        OptionOffer storage offer = offers[lock.offerIndex];\n        require(lock.taker == msg.sender, \"Permission denied\");\n        require(lock.creation + offer.minDuration < now, \"too early to take\");\n        require(lock.creation + offer.duration > now, \"too late to take\");\n\n        if(offer.ethOrToken){\n            require(givenTokens <= lock.tokenAmount, \"Not enough locked\");\n            uint ethToSend = givenTokens.mul(lock.ethAmount).div(lock.tokenAmount);\n            \n            lock.tokenAmount -= givenTokens;\n            lock.ethAmount -= ethToSend;\n            \n            offer.assetsLocked -= ethToSend;\n\n            userTokenBalances[msg.sender] += givenTokens;\n\n            msg.sender.transfer(ethToSend);\n            token.transferFrom(msg.sender, this, givenTokens);\n        }\n        else{\n            require(msg.value <= lock.ethAmount, \"Not enough locked\");\n            uint tokensToSend = msg.value.mul(lock.tokenAmount).div(lock.ethAmount);\n            \n            lock.tokenAmount -= tokensToSend;\n            lock.ethAmount -= msg.value;\n\n            offer.assetsLocked -= tokensToSend;\n\n            userEthBalances[msg.sender] += givenTokens;\n\n            token.transfer(msg.sender, tokensToSend);\n\n            \n        }\n\n    }\n\n    // Canceles an invalid lock\n    function cancelLock(uint lockIndex) public{\n        uint startingGas = gasleft();\n        PriceLock storage lock = priceLocks[lockIndex];\n        OptionOffer storage offer = offers[lock.offerIndex];\n        bool expired = lock.creation + offer.duration < now;\n        bool notEmpty = lock.ethAmount > 0;\n        require(expired && notEmpty, \"Not valid for cancelation\");\n        if(lock.ethOrToken){\n            lock.tokenAmount = 0;\n            userEthBalances[offer.owner] += lock.ethAmount;\n            offer.assetsLocked -= lock.ethAmount;\n            lock.ethAmount = 0;\n        }\n        else{\n            lock.ethAmount = 0;\n            userTokenBalances[offer.owner] += lock.tokenAmount;\n            offer.assetsLocked -= lock.tokenAmount;\n            lock.tokenAmount = 0;\n        }\n\n        // Adding 60k for 2 writes + stipend + min tx\n        uint ethToRefund = (startingGas - gasleft() + 60000)*tx.gasprice *3 /2;\n        require(ethToRefund > userEthBalances[offer.owner], \"User can't pay for consolidation\");\n\n        userEthBalances[offer.owner] -= ethToRefund;\n\n        msg.sender.transfer(ethToRefund);\n    \n    }\n\n    function addToken(uint amount) public{\n        userTokenBalances[msg.sender] += amount;\n        token.transferFrom(msg.sender, this, amount);\n    }\n\n    function addEther() public payable {\n        userEthBalances[msg.sender] += msg.value; \n    }\n\n    function changeOfferMaxAsset(uint offerIndex, uint32 newMaxAsset) public{\n        OptionOffer storage offer = offers[offerIndex];\n        require(msg.sender == offer.owner, \"Permission denied\");\n        offer.maxAssetsLocked = newMaxAsset;\n    }\n\n    function transfer(uint lockIndex, address recipient) public {\n        PriceLock storage lock = priceLocks[lockIndex];\n        require(lock.taker == msg.sender, \"Permission denied\");\n        lock.taker = recipient;\n    }\n\n    function withdrawToken(uint amount) public{\n        require(amount<=userTokenBalances[msg.sender], \"Not enough available assets\");\n        userTokenBalances[msg.sender] -= amount;\n\n        token.transfer(msg.sender, amount);\n    }\n\n    function withdrawEth(uint amount) public payable{\n        require(amount<=userEthBalances[msg.sender], \"Not enough available assets\");\n        userEthBalances[msg.sender] -= msg.value; \n        msg.sender.transfer(amount);\n    }\n\n    function getOffersLength() public view returns(uint){\n        return offers.length;\n    }\n\n    function getLocksLength() public view returns(uint){\n        return priceLocks.length;\n    }\n\n    function getUserOffersLength(address user) public view returns(uint){\n        return userToOffers[user].length;\n    }\n\n    function getUserLocksLength(address user) public view returns(uint){\n        return userToLocks[user].length;\n    }\n\n}",
  "sourcePath": "/Users/kenneth/Projects/monti/contracts/OptionRegistry.sol",
  "compiler": {
    "name": "solc",
    "version": "0.4.24+commit.e67f0147.Emscripten.clang"
  },
  "schemaVersion": "2.0.1",
  "updatedAt": "2018-12-03T19:38:52.128Z"
}