{
  "contractName": "OptionRegistryFactory",
  "abi": [
    {
      "constant": true,
      "inputs": [
        {
          "name": "",
          "type": "address"
        }
      ],
      "name": "tokenToRegistry",
      "outputs": [
        {
          "name": "",
          "type": "address"
        }
      ],
      "payable": false,
      "stateMutability": "view",
      "type": "function",
      "signature": "0x38875b55"
    },
    {
      "inputs": [],
      "payable": false,
      "stateMutability": "nonpayable",
      "type": "constructor",
      "signature": "constructor"
    },
    {
      "constant": false,
      "inputs": [
        {
          "name": "tokenAddress",
          "type": "address"
        }
      ],
      "name": "addFactory",
      "outputs": [],
      "payable": false,
      "stateMutability": "nonpayable",
      "type": "function",
      "signature": "0x29ce1ec5"
    }
  ],
  "bytecode": "0x608060405234801561001057600080fd5b50611bf4806100206000396000f30060806040526004361061004b5763ffffffff7c010000000000000000000000000000000000000000000000000000000060003504166329ce1ec5811461005057806338875b5514610080575b600080fd5b34801561005c57600080fd5b5061007e73ffffffffffffffffffffffffffffffffffffffff600435166100d7565b005b34801561008c57600080fd5b506100ae73ffffffffffffffffffffffffffffffffffffffff60043516610172565b6040805173ffffffffffffffffffffffffffffffffffffffff9092168252519081900360200190f35b6000816100e261019a565b73ffffffffffffffffffffffffffffffffffffffff909116815260405190819003602001906000f08015801561011c573d6000803e3d6000fd5b5073ffffffffffffffffffffffffffffffffffffffff928316600090815260208190526040902080547fffffffffffffffffffffffff000000000000000000000000000000000000000016919093161790915550565b60006020819052908152604090205473ffffffffffffffffffffffffffffffffffffffff1681565b604051611a1e806101ab833901905600608060405234801561001057600080fd5b50604051602080611a1e833981016040525160008054600160a060020a03909216600160a060020a03199092169190911790556119cc806100526000396000f3006080604052600436106100ae5763ffffffff7c01000000000000000000000000000000000000000000000000000000006000350416630d31d69181146100b3578063179d375c146100c3578063486492d3146100db57806350baa622146100f65780638894dd2b1461010e5780638f7683cd146101165780639bda609714610124578063b7760c8f14610145578063c311d04914610169578063dfb50b5d14610174578063f3c73bd1146101dd575b600080fd5b6100c16004356024356101f5565b005b3480156100cf57600080fd5b506100c160043561066f565b3480156100e757600080fd5b506100c1600435602435610724565b34801561010257600080fd5b506100c1600435610b92565b6100c1610c7f565b6100c1600435602435610c96565b34801561013057600080fd5b506100c160043563ffffffff602435166110fc565b34801561015157600080fd5b506100c1600435600160a060020a036024351661119a565b6100c1600435611259565b6040805180820182526100c191369160049160449190839060029083908390808284375050604080516080818101909252949796958181019594509250600491508390839080828437509396505050508135151592505060200135600160a060020a0316611308565b3480156101e957600080fd5b506100c160043561162e565b60008060008060038681548110151561020a57fe5b906000526020600020906005020193506004846000015481548110151561022d57fe5b6000918252602090912060048601546008909202019350600160a060020a031633146102a85760408051600080516020611981833981519152815260206004820152601160248201527f5065726d697373696f6e2064656e696564000000000000000000000000000000604482015290519081900360640190fd5b600583015460018501544291011061030f5760408051600080516020611981833981519152815260206004820152601160248201527f746f6f206561726c7920746f2074616b65000000000000000000000000000000604482015290519081900360640190fd5b60048301546001850154429101116103765760408051600080516020611981833981519152815260206004820152601060248201527f746f6f206c61746520746f2074616b6500000000000000000000000000000000604482015290519081900360640190fd5b600383015460ff161561051a5760028401548511156103e45760408051600080516020611981833981519152815260206004820152601160248201527f4e6f7420656e6f756768206c6f636b6564000000000000000000000000000000604482015290519081900360640190fd5b61040f846002015461040386600301548861188490919063ffffffff16565b9063ffffffff6118bd16565b600280860180548890039055600386018054839003905584810180548390039055336000818152602092909252604080832080548a019055519294509184156108fc0291859190818181858888f19350505050158015610473573d6000803e3d6000fd5b5060008054604080517f23b872dd000000000000000000000000000000000000000000000000000000008152336004820152306024820152604481018990529051600160a060020a03909216926323b872dd926064808401936020939083900390910190829087803b1580156104e857600080fd5b505af11580156104fc573d6000803e3d6000fd5b505050506040513d602081101561051257600080fd5b506106679050565b600384015434111561057b5760408051600080516020611981833981519152815260206004820152601160248201527f4e6f7420656e6f756768206c6f636b6564000000000000000000000000000000604482015290519081900360640190fd5b61059a846003015461040386600201543461188490919063ffffffff16565b600280860180548390039055600386018054349003905584018054829003905533600081815260016020908152604080832080548b019055825481517fa9059cbb0000000000000000000000000000000000000000000000000000000081526004810195909552602485018690529051949550600160a060020a03169363a9059cbb93604480820194918390030190829087803b15801561063a57600080fd5b505af115801561064e573d6000803e3d6000fd5b505050506040513d602081101561066457600080fd5b50505b505050505050565b336000818152600260209081526040808320805486019055825481517f23b872dd0000000000000000000000000000000000000000000000000000000081526004810195909552306024860152604485018690529051600160a060020a03909116936323b872dd9360648083019493928390030190829087803b1580156106f557600080fd5b505af1158015610709573d6000803e3d6000fd5b505050506040513d602081101561071f57600080fd5b505050565b60008060006107316118f2565b600480548690811061073f57fe5b60009182526020808320600760089093020191820154600160a060020a031683526001905260409091205490945086116107c85760408051600080516020611981833981519152815260206004820152600e60248201527f4e6f7420656e6f75676820455448000000000000000000000000000000000000604482015290519081900360640190fd5b600384015460ff16151561082b5760408051600080516020611981833981519152815260206004820152601060248201527f4e6f7420616e20455448206f6666657200000000000000000000000000000000604482015290519081900360640190fd5b600284015461084190879063ffffffff6118e016565b6001850154116108a05760408051600080516020611981833981519152815260206004820152601060248201527f546f6f206d75636820746f206c6f636b00000000000000000000000000000000604482015290519081900360640190fd5b600684015460008054604080517f754831d6000000000000000000000000000000000000000000000000000000008152600160a060020a039283166004820152602481018b90529051919093169263754831d69260448083019360209390929083900390910190829087803b15801561091857600080fd5b505af115801561092c573d6000803e3d6000fd5b505050506040513d602081101561094257600080fd5b505184549093506109789063ffffffff640100000000820481169161096c91879181169061188416565b9063ffffffff61188416565b8582524260208084019182526040808501878152606086018b81523360808801818152600160a08a018181526000848152600689528781206003805480860182559083528d517fc2575a0e9e593c00f959f8c92f12db2869c3395a3b0502d05e2516446f71f85b60058302908101919091559b517fc2575a0e9e593c00f959f8c92f12db2869c3395a3b0502d05e2516446f71f85c8d015597517fc2575a0e9e593c00f959f8c92f12db2869c3395a3b0502d05e2516446f71f85d8c015595517fc2575a0e9e593c00f959f8c92f12db2869c3395a3b0502d05e2516446f71f85e8b015592517fc2575a0e9e593c00f959f8c92f12db2869c3395a3b0502d05e2516446f71f85f9099018054915173ffffffffffffffffffffffffffffffffffffffff19909216600160a060020a039a8b161774ff000000000000000000000000000000000000000019167401000000000000000000000000000000000000000092151592909202919091179055835480820185559382528682209093019390935560078b01548616835290845282822080548d900390556002808b0180548e0190558183528452828220805487019055815483517f23b872dd000000000000000000000000000000000000000000000000000000008152600481019290925230602483015260448201879052925195975091909316936323b872dd93606480840194938390030190829087803b15801561063a57600080fd5b33600090815260026020526040902054811115610bfe5760408051600080516020611981833981519152815260206004820152601b60248201527f4e6f7420656e6f75676820617661696c61626c65206173736574730000000000604482015290519081900360640190fd5b33600081815260026020908152604080832080548690039055825481517fa9059cbb0000000000000000000000000000000000000000000000000000000081526004810195909552602485018690529051600160a060020a039091169363a9059cbb9360448083019493928390030190829087803b1580156106f557600080fd5b336000908152600160205260409020805434019055565b6000806000610ca36118f2565b6004805486908110610cb157fe5b60009182526020808320600760089093020191820154600160a060020a03168352600290526040909120549094508611610d3a5760408051600080516020611981833981519152815260206004820152601060248201527f4e6f7420656e6f75676820546f6b656e00000000000000000000000000000000604482015290519081900360640190fd5b600384015460ff1615610d9c5760408051600080516020611981833981519152815260206004820152601160248201527f4e6f74206120746f6b656e206f66666572000000000000000000000000000000604482015290519081900360640190fd5b6002840154610db290879063ffffffff6118e016565b600185015411610e115760408051600080516020611981833981519152815260206004820152601060248201527f546f6f206d75636820746f206c6f636b00000000000000000000000000000000604482015290519081900360640190fd5b600684015460008054604080517f5e985e35000000000000000000000000000000000000000000000000000000008152600160a060020a039283166004820152602481018b905290519190931692635e985e359260448083019360209390929083900390910190829087803b158015610e8957600080fd5b505af1158015610e9d573d6000803e3d6000fd5b505050506040513d6020811015610eb357600080fd5b50518454909350610edd9063ffffffff640100000000820481169161096c91879181169061188416565b85825242602080840191825260408085018a8152606086018881523360808801818152600060a08a018181529281526006875285812060038054600180820183559184528c517fc2575a0e9e593c00f959f8c92f12db2869c3395a3b0502d05e2516446f71f85b60058302908101919091559a517fc2575a0e9e593c00f959f8c92f12db2869c3395a3b0502d05e2516446f71f85c8c015596517fc2575a0e9e593c00f959f8c92f12db2869c3395a3b0502d05e2516446f71f85d8b015594517fc2575a0e9e593c00f959f8c92f12db2869c3395a3b0502d05e2516446f71f85e8a015591517fc2575a0e9e593c00f959f8c92f12db2869c3395a3b0502d05e2516446f71f85f9098018054935173ffffffffffffffffffffffffffffffffffffffff19909416600160a060020a03998a161774ff00000000000000000000000000000000000000001916740100000000000000000000000000000000000000009415159490940293909317909255805492830181558152848120909101919091556007890154909316835260029182905290912080548990039055850180548801905591503482106110df5760408051600080516020611981833981519152815260206004820152600f60248201527f6e6f7420656e6f75676820666565730000000000000000000000000000000000604482015290519081900360640190fd5b505033600090815260016020526040902080543401905550505050565b600060048381548110151561110d57fe5b600091825260209091206008909102016007810154909150600160a060020a031633146111895760408051600080516020611981833981519152815260206004820152601160248201527f5065726d697373696f6e2064656e696564000000000000000000000000000000604482015290519081900360640190fd5b63ffffffff90911660019091015550565b60006003838154811015156111ab57fe5b60009182526020909120600460059092020190810154909150600160a060020a031633146112285760408051600080516020611981833981519152815260206004820152601160248201527f5065726d697373696f6e2064656e696564000000000000000000000000000000604482015290519081900360640190fd5b600401805473ffffffffffffffffffffffffffffffffffffffff1916600160a060020a039290921691909117905550565b336000908152600160205260409020548111156112c55760408051600080516020611981833981519152815260206004820152601b60248201527f4e6f7420656e6f75676820617661696c61626c65206173736574730000000000604482015290519081900360640190fd5b33600081815260016020526040808220805434900390555183156108fc0291849190818181858888f19350505050158015611304573d6000803e3d6000fd5b5050565b611310611934565b846000602002015163ffffffff1681528460016020908102919091015163ffffffff169082015283600260200201516040820152836000602002015160a082015283600160200201518160c0018181525050818160e00190600160a060020a03169081600160a060020a03168152505033816101000190600160a060020a03169081600160a060020a0316815250506000816060018181525050828160800190151590811515815250506005600033600160a060020a0316600160a060020a0316815260200190815260200160002060016004839080600181540180825580915050906001820390600052602060002090600802016000909192909190915060008201518160000160006101000a81548163ffffffff021916908363ffffffff16021790555060208201518160000160046101000a81548163ffffffff021916908363ffffffff160217905550604082015181600101556060820151816002015560808201518160030160006101000a81548160ff02191690831515021790555060a0820151816004015560c0820151816005015560e08201518160060160006101000a815481600160a060020a030219169083600160a060020a031602179055506101008201518160070160006101000a815481600160a060020a030219169083600160a060020a0316021790555050500390806001815401808255809150509060018203906000526020600020016000909192909190915055508280156115395750600034115b15611554573360009081526001602052604090208054340190555b82158015611566575060608401516000105b156116275760608401805133600081815260026020908152604080832080549095019094558154945184517f23b872dd000000000000000000000000000000000000000000000000000000008152600481019490945230602485015260448401529251600160a060020a03909416936323b872dd936064808501949193918390030190829087803b1580156115fa57600080fd5b505af115801561160e573d6000803e3d6000fd5b505050506040513d602081101561162457600080fd5b50505b5050505050565b6000806000806000805a955060038781548110151561164957fe5b906000526020600020906005020194506004856000015481548110151561166c57fe5b906000526020600020906008020193504284600401548660010154011092506000856003015411915082801561169f5750815b15156116fa5760408051600080516020611981833981519152815260206004820152601960248201527f4e6f742076616c696420666f722063616e63656c6174696f6e00000000000000604482015290519081900360640190fd5b600485015474010000000000000000000000000000000000000000900460ff161561176357600060028087018290556003870180546007880154600160a060020a03168452600160205260408420805490910190558054918701805492909203909155556117a3565b600060038601819055600280870180546007880154600160a060020a03168452602083905260408420805490910190558054918701805492909203909155555b60023a5a880361ea6001026003028115156117ba57fe5b6007860154600160a060020a0316600090815260016020526040902054919004915081116118375760408051600080516020611981833981519152815260206004820181905260248201527f557365722063616e27742070617920666f7220636f6e736f6c69646174696f6e604482015290519081900360640190fd5b6007840154600160a060020a03166000908152600160205260408082208054849003905551339183156108fc02918491818181858888f19350505050158015610664573d6000803e3d6000fd5b60008083151561189757600091506118b6565b508282028284828115156118a757fe5b04146118b257600080fd5b8091505b5092915050565b6000808083116118cc57600080fd5b82848115156118d757fe5b04949350505050565b6000828201838110156118b257600080fd5b60c060405190810160405280600081526020016000815260200160008152602001600081526020016000600160a060020a031681526020016000151581525090565b6040805161012081018252600080825260208201819052918101829052606081018290526080810182905260a0810182905260c0810182905260e0810182905261010081019190915290560008c379a000000000000000000000000000000000000000000000000000000000a165627a7a72305820bcc93e6b0d59f8b95c29d65af90c20ec473c2b3da4a30b34e05e22e58fd964670029a165627a7a72305820701d6556d82b41a84edb8dfc790bec88ebcf738774b690d21a4a343bac5265dd0029",
  "source": "pragma solidity ^0.4.24;\n\n\nimport \"openzeppelin-solidity/contracts/ownership/Ownable.sol\";\nimport \"./OptionRegistry.sol\";\n\ncontract OptionRegistryFactory{\n    mapping(address => address) public tokenToRegistry;\n\n    constructor() public{\n\n    }\n\n    function addFactory(address tokenAddress) public{\n        address registry = new OptionRegistry(tokenAddress);\n        tokenToRegistry[tokenAddress] = registry;\n    }\n}",
  "sourcePath": "/home/yoni/Devel/opzia/contracts/OptionRegistryFactory.sol",
  "compiler": {
    "name": "solc",
    "version": "0.4.24+commit.e67f0147.Emscripten.clang"
  },
  "schemaVersion": "3.0.0-beta.2",
  "updatedAt": "2018-12-02T20:48:03.619Z",
  "devdoc": {
    "methods": {}
  },
  "userdoc": {
    "methods": {}
  }
}